:100000000C9462000C948A000C948A000C948A0070
:100010000C948A000C948A000C948A000C948A0038
:100020000C948A000C948A000C948A000C948A0028
:100030000C948A000C948A000C948A000C948A0018
:100040000C94DF060C948A000C948A000C948A00AD
:100050000C948A000C948A000C948A000C948A00F8
:100060000C948A000C948A00000000080002010031
:100070000003040700000000000000000000000072
:10008000240027002A000000000023002600290089
:1000900000000000250028002B00040404040404D0
:1000A0000404020202020202030303030303010227
:1000B00004081020408001020408102001020408F6
:1000C0001020C50911241FBECFEFD8E0DEBFCDBF81
:1000D00011E0A0E0B1E0E4EEF5E102C005900D9280
:1000E000A232B107D9F724E0A2E2B1E001C01D922B
:1000F000AD37B207E1F710E0C2E6D0E004C02197C7
:10010000FE010E94410AC136D107C9F70E942907A2
:100110000C94F00A0C94000020E0DC0160FF03C0A6
:1001200001C02D932D936250E0F77040D0F70895F1
:10013000DC0117962C91179730E0F901E255FF4F3B
:10014000E4911696EC93169726563F4FF901849149
:10015000E82FF0E0EE0FFF1FE057FF4F85919491DD
:1001600013969C938E931297F9012491E22FF0E05D
:10017000EE0FFF1FEA57FF4F8591949115969C93C0
:100180008E9314970895CF93DF9390E0FC01E2558E
:10019000FF4F249186569F4FFC0184918823C1F024
:1001A00090E0880F991FFC01E458FF4FC591D4914E
:1001B000FC01E057FF4FA591B4919FB7F8943881A7
:1001C000822F809583238883EC91E22BEC939FBF51
:1001D000DF91CF91089590E0FC01E859FF4F249101
:1001E000FC01E255FF4F3491FC01E656FF4FE491CC
:1001F000EE23C1F1222339F02330E9F090F42130CD
:1002000001F1223011F1F0E0EE0FFF1FEA57FF4F2E
:10021000A591B491EC91E32381E090E029F580E091
:1002200008952730A9F02830C9F0243061F7809173
:1002300080008F7D03C0809180008F778093800045
:10024000E2CF84B58F7784BDDECF84B58F7DFBCFC1
:100250008091B0008F778093B000D5CF8091B000AF
:100260008F7DF9CF80E090E008953FB7F8948091BA
:100270005C0490915D04A0915E04B0915F0426B58A
:10028000A89B05C02F3F19F00196A11DB11D3FBFCE
:10029000BA2FA92F982F8827BC01CD01620F711D9D
:1002A000811D911D42E0660F771F881F991F4A9597
:1002B000D1F708954F925F926F927F929F92AF9283
:1002C000BF92CF92DF92EF92FF920F931F93CF9343
:1002D000DF9300D01F92CDB7DEB7D82E80916D048A
:1002E00090916E04A0916F04B0917004892B8A2BB9
:1002F0008B2BD9F00E9435010091790410917A047A
:1003000020917B0430917C04601B710B820B930B5A
:1003100000916D0410916E0420916F04309170046F
:100320006017710782079307C8F20E943501609336
:10033000790470937A0480937B0490937C04E09119
:100340007504F0917604309759F040917104509102
:10035000720460917304709174048D2D0995D82EE8
:10036000E0907704F09078044D2C512C712C612C86
:10037000E114F10409F459C0D7011C96CC901C97E4
:1003800080916B0490916C048436910510F41C9656
:100390001C92D701ED91FC91A280B38019821A8240
:1003A0001B82DD2079F1F701369610E000E0219103
:1003B000222319F19280992001F130E050E040E0D1
:1003C0002F5F3F4F4F4F5F4FC301B2010E94D509CE
:1003D0009B01AC01892D90E0B0E0A0E0BC01CD0113
:1003E0006F5F7F4F8F4F9F4F0E94D509A1E0B0E014
:1003F000AC0FBD1FA00FB11F8C930F5F1F4F0330B9
:100400001105A9F609811A812B81F70145855685C9
:1004100062817381C701F5010995D7011C96CC92C1
:100420001C971496ED90FC90A3CF80916804909156
:1004300069049C012F5F3F4F309369042093680447
:1004400049970CF44AC08FB7F8942091600430911A
:10045000610440916204509163048FBF80916404F1
:1004600090916504A0916604B0916704281B390B34
:100470004A0B5B0B21F421E030E040E050E0E091DA
:100480006804F091690488EE93E0E89FB001E99F69
:10049000700DF89F700D1124072E000C880B990B1E
:1004A0000E94F90930936C0420936B041092690444
:1004B000109268042FB7F8948091600490916104C1
:1004C000A0916204B09163042FBF80936404909361
:1004D0006504A0936604B09367040F900F900F908B
:1004E000DF91CF911F910F91FF90EF90DF90CF9010
:1004F000BF90AF909F907F906F905F904F900895C6
:1005000080E991E008950F931F93CF93DF9320919B
:1005100023012F5F322F37703093230120FF2BC030
:1005200020E831FD2064347009F02062205FFC0176
:10053000EC01239600E011E06485662329F070E069
:10054000C8010E94E5096F5F6187322F369F030E55
:1005500030E0311D1124311110C01682662311F0D4
:10056000615061873196EC17FD0731F7DF91CF912C
:100570001F910F91089520E0D4CF31503683EECFF4
:100580004F925F926F927F928F92AF92BF92CF9273
:10059000DF92EF920F931F93CF93DF933C01EB0118
:1005A0000E943501F30127853089621B730B6A3085
:1005B0007105B0F3F894E881F98175B1746065B1A3
:1005C0006B7F65B9CA848F812C2D281B822F2F83C6
:1005D000BF844A805B801D850C85DE841F5F0F5FB2
:1005E000D3949E813885A984EB844181D20120E097
:1005F000C32F522F322F3181442788943111380F65
:1006000008F43FEF8195889410FD430F4795889437
:1006100011FD430F4795889412FD430F4795889429
:1006200013FD430F4795889414FD430F4795889415
:1006300015FD430F4795889416FD430F4795889401
:1006400017FD430F47958894232F1111242F8C0DEC
:10065000422F002C75B900C047FF65B930812227B1
:10066000889400C000C0002C65B93111390F00C05A
:10067000002C75B900C046FF65B908F43FEF9195AD
:10068000889400C000C0002C65B900FD230F00C095
:10069000002C75B900C045FF65B92795889401FD08
:1006A000230F00C000C0002C65B92795889400C0B6
:1006B000002C75B900C044FF65B902FD230F2795D2
:1006C000889400C000C0002C65B903FD230F00C052
:1006D000002C75B900C043FF65B92795889404FDC7
:1006E000230F00C000C0002C65B92795889400C076
:1006F000002C75B900C042FF65B905FD230F279591
:10070000889400C000C0002C65B906FD230F00C00E
:10071000002C75B900C041FF65B92795889407FD85
:10072000230F00C000C0002C65B92795889400C035
:10073000002C75B900C040FF65B9432F0111422F4D
:100740009A0D00C000C0002C65B900C000C0002C8C
:1007500075B900C047FF65B932812227889400C06F
:1007600000C0002C65B931113C0F00C0002C75B9D8
:1007700000C046FF65B908F43FEFEB0DF11D00C066
:1007800000C0002C65B9D0FC230F00C0002C75B947
:1007900000C045FF65B927958894D1FC230F00C0A0
:1007A00000C0002C65B92795889400C0002C75B94D
:1007B00000C044FF65B9D2FC230F2795889400C080
:1007C00000C0002C65B9D3FC230F00C0002C75B904
:1007D00000C043FF65B927958894D4FC230F00C05F
:1007E00000C0002C65B92795889400C0002C75B90D
:1007F00000C042FF65B9D5FC230F2795889400C03F
:1008000000C0002C65B9D6FC230F00C0002C75B9C0
:1008100000C041FF65B927958894D7FC230F00C01D
:1008200000C0002C65B92795889400C0002C75B9CC
:1008300000C040FF65B9432FD110422FC19500C0C1
:1008400000C0002C65B9CE0D00C000C075B900C055
:1008500047FF65B931812227889400C000C0002C71
:1008600065B93111380F00C0002C75B900C046FFC2
:1008700065B908F43FEF8195889400C000C0002C52
:1008800065B910FD230F00C0002C75B900C045FFED
:1008900065B92795889411FD230F00C000C0002C76
:1008A00065B92795889400C0002C75B900C044FF35
:1008B00065B912FD230F2795889400C000C0002C55
:1008C00065B913FD230F00C0002C75B900C043FFAC
:1008D00065B92795889414FD230F00C000C0002C33
:1008E00065B92795889400C0002C75B900C042FFF7
:1008F00065B915FD230F2795889400C000C0002C12
:1009000065B916FD230F00C0002C75B900C041FF6A
:1009100065B92795889417FD230F00C000C0002CEF
:1009200065B92795889400C0002C75B900C040FFB8
:1009300065B9432F1111422F8C0D00C000C0002C4F
:1009400065B9119709F086CE20EE31E0D2010E9400
:100950001B0ADC01CB01F4E0B695A7959795879526
:10096000FA95D1F730E020E0B901EAE94E9E040C97
:10097000611D5E9E600D711D1124650D711D860F38
:10098000971FA11DB11D893E43E09407A105B10544
:1009900008F434C0885E9340A109B10942E0B695DD
:1009A000A795979587954A95D1F747E0849F080EBC
:1009B000211D949F200D311D1124290F311D60919F
:1009C000220170E0860F971F820F931F40916004F1
:1009D000509161046091620470916304292F332760
:1009E000420F531F611D711D4093600450936104B9
:1009F00060936204709363048093220178940E9450
:100A00003501F301708B6787DF91CF911F910F91B3
:100A1000EF90DF90CF90BF90AF908F907F906F90CE
:100A20005F904F900895229A0895EF92FF920F934E
:100A30001F93CF93DF93CDB7DEB762970FB6F894CD
:100A4000DEBF0FBECDBF7C01DC011C968C917A838A
:100A500069835C834B835E834D830D871E872F875D
:100A6000813001F5CE0101960E94830283E0888BDC
:100A70001A8A198AD701ED91FC910484F585E02D3D
:100A8000BE016F5F7F4FC701099562960FB6F8945C
:100A9000DEBF0FBECDBFDF91CF911F910F91FF90B1
:100AA000EF9008951C861B861A86198618861F8269
:100AB000DDCFEF92FF920F931F93CF93DF93CDB7CC
:100AC000DEB762970FB6F894DEBF0FBECDBF7C01D4
:100AD000DC011C968C917A8369835C834B835E83F3
:100AE0004D830D871E872F878130F9F4CE01019643
:100AF0000E948302188A1A8A198AD701ED91FC9103
:100B00000484F585E02DBE016F5F7F4FC701099515
:100B100062960FB6F894DEBF0FBECDBFDF91CF91C6
:100B20001F910F91FF90EF9008951C861B861A86E7
:100B3000198618861F82DECF0F931F93CF93DF9302
:100B400000D01F92CDB7DEB7AB0119821A821B828B
:100B5000DC01ED91FC910190F081E02D00E010E0CE
:100B600020E0BE016F5F7F4F09950F900F900F90AF
:100B7000DF91CF911F910F910895CF92DF92EF9265
:100B800030E020E040914B0450914C04241735078D
:100B9000ACF4A901440F551F420F531FE0914504C7
:100BA000F0914604E40FF51FDC01CD90DD90EC9050
:100BB000C082D182E2822F5F3F4FE4CFEF90DF907F
:100BC000CF9008952F923F924F925F926F927F92B3
:100BD0008F929F92AF92BF92CF92DF92EF92FF924D
:100BE0000F931F93CF93DF93CDB7DEB729970FB63F
:100BF000F894DEBF0FBECDBF898749835A836B83CC
:100C00007C830091770410917804BDE78B2E912CA2
:100C1000A12CB12C0115110509F46BC0D801ED917F
:100C2000FC910084F185E02DC80109951C01D801D3
:100C30001296ED91FC91C12CD12C7601412C512CB6
:100C4000320120E030E0A901009791F06081260F89
:100C5000311D411D511D6181460E511C611C711CCD
:100C60006281C60ED11CE11CF11C01973396ECCFBA
:100C7000A0E5B0E00E94220A6D837E838F8398876F
:100C8000A7E3B0E0A30192010E94220A2B013C01DC
:100C9000ABE4B0E0A70196010E94220A2D813E81BB
:100CA0004F815885C32ED42EE52EFF2445E0429D6A
:100CB0009001439D300D1124C20ED31EE11CF11C86
:100CC0008C0C9D1CAE1CBF1C452C562C672C77240D
:100CD000840C951CA61CB71C472F582F692F77270B
:100CE000840E951EA61EB71ED80114960D911C9158
:100CF00091CFB985CB2ED12CF12CE12CA7019601F7
:100D0000C501B4010E94D509872E982EA92EBB24B7
:100D100029813A814B815C8182169306A406B5062F
:100D200068F0A701960169817A818B819C810E947C
:100D3000D509A50194010E94F90929878985299679
:100D40000FB6F894DEBF0FBECDBFDF91CF911F91DC
:100D50000F91FF90EF90DF90CF90BF90AF909F905A
:100D60008F907F906F905F904F903F902F9008955D
:100D7000FC01A281B3819C9186812681982381E028
:100D8000921380E00895FC0186810280F381E02DBA
:100D900090818095892380830895FC01968102804B
:100DA000F381E02D8081892B80830895FC01858566
:100DB0009685089590E080E008950E94EB0A1F92C6
:100DC0000F920FB60F9211242F933F938F939F93FF
:100DD000AF93BF938091600490916104A0916204ED
:100DE000B091630430915B0423E0230F2D3758F555
:100DF0000196A11DB11D20935B0480936004909324
:100E00006104A0936204B093630480915C049091A8
:100E10005D04A0915E04B0915F040196A11DB11D17
:100E200080935C0490935D04A0935E04B0935F0490
:100E3000BF91AF919F918F913F912F910F900FBED6
:100E40000F901F90189526E8230F0296A11DB11D43
:100E5000D2CFCF93DF9300D01F92CDB7DEB7789477
:100E600084B5826084BD84B5816084BD85B58260AF
:100E700085BD85B5816085BD80916E008160809360
:100E80006E001092810080918100826080938100C9
:100E900080918100816080938100809180008160D9
:100EA000809380008091B10084608093B100809134
:100EB000B00081608093B00080917A00846080935C
:100EC0007A0080917A00826080937A0080917A0023
:100ED000816080937A0080917A00806880937A00A4
:100EE0001092C10085E00E94C30084E00E94C3000C
:100EF00083E00E94C30082E00E94C3008AE594E080
:100F0000909354048093530489E594E090935204A1
:100F10008093510488E594E09093500480934F04AB
:100F200087E594E090934E0480934D048FE391E025
:100F3000909346048093450482E091E090934C04A2
:100F400080934B0481E090E0909356048093550485
:100F50002FB7F8948091600490916104A09162048D
:100F6000B09163042FBF8093470490934804A093EB
:100F70004904B0934A0480913701811145C0109211
:100F80002901109228018FEF80932C0180932D016D
:100F900080932E0180932F01809330018093310143
:100FA00081E080933201109234011092330110924B
:100FB0002B0110922A018091770490917804892B5B
:100FC00031F486E291E09093780480937704E09185
:100FD0002401F0912501309721F086E291E095837C
:100FE000848386E291E090932501809324011092FE
:100FF00036011092350184E191E0909327018093AE
:10100000260181E080933701229A8FE391E090934B
:1010100029018093280182E091E09093340180932C
:10102000330180916D0490916E04A0916F04B09192
:101030007004843C29E09207A105B10520F484ECFA
:1010400099E0A0E0B0E080936D0490936E04A093CB
:101050006F04B093700482EE95E0909376048093D1
:10106000750484EC99E0A0E0B0E080937104909363
:101070007204A0937304B0937404009177041091E8
:1010800078040115110591F0F80182819381009790
:1010900049F025853685B901660F771F620F731FEA
:1010A0000E948C00F80104811581EBCF80916A04C5
:1010B0000E945A0185E00E94EB0021E0892B09F093
:1010C00020E020935A0484E00E94EB0021E0892B69
:1010D00009F020E02093590483E00E94EB0021E016
:1010E000892B09F020E02093580482E00E94EB0055
:1010F00021E0892B09F020E02093570480915504CA
:1011000090915604009771F0019709F43AC18091CB
:101110006A040E945A0180E090E0892B59F20E94F3
:101120000000C8CFE0915304F091540480818823DB
:1011300029F08FEF89838A838B830BC0E091510460
:10114000F09152048081882349F019828FEF8A83BD
:101150001B82CE0101960E94BD05D9CFE0914F04BC
:10116000F09150048081882319F08FEF8983EFCFAD
:10117000E0914D04F0914E0480818111FEC010E099
:1011800000E080914B0490914C04081719070CF073
:10119000BECF2FB7F8946091600470916104809184
:1011A0006204909163042FBFC0904704D09048041C
:1011B000E0904904F0904A046C197D098E099F095A
:1011C00022E330E040E050E00E94F909F22EF00EF8
:1011D0001801220C331C200E311E80914504909181
:1011E0004604280E391E2F2D30E0F6E0FF9EB00198
:1011F00011246E3F42E074070CF44BC06C3F83E057
:1012000078070CF457C06C3F94E079070CF056C097
:101210006C5F7340072E000C880B990B0E94870AA5
:101220004B015C016BEA6F0D262F30E0F6E06F9FFB
:10123000B00111246E3F42E074070CF446C06C3FCD
:1012400083E078070CF452C06C3F94E079070CF00F
:1012500051C06C5F7340072E000C880B990B0E94E5
:10126000870A2B013C0165E56F0D462F50E0F6E043
:101270006F9FB00111246E3F22E072070CF441C051
:101280006C3F43E074070CF052C0C12CD12C7601A6
:101290005CC04AEF4203B001439F700D11246230DD
:1012A0008EEF78073CF06230EFEF7E073CF462503F
:1012B0007E4FB0CF812C912C5401B4CF812C912C36
:1012C0002FE7A22E23E4B22EADCF4AEF4203B001A6
:1012D000439F700D112462308EEF78073CF062302E
:1012E000EFEF7E073CF462507E4FB5CF412C512C7E
:1012F0003201B9CF412C512C9FE7692E93E4792E0E
:10130000B2CF2AEF2403B001259F700D1124623063
:101310004EEF74070CF4B9CF62309FEF790754F1A8
:10132000C12CD12C8FE7E82E83E4F82E0EC06C3F41
:1013300084E07807ACF76C5F7340072E000C880BD5
:10134000990B0E94870A6B017C01C501B4010E94C0
:10135000560AF1016083C301B2010E94560AF101ED
:101360006183C701B6010E94560AF10162830F5FD3
:101370001F4F07CF62507E4FE0CF8FEF89831A82D5
:10138000E7CE8FEF89831A82D7CEEAE6F4E08FEFBB
:10139000808312821182148613868FEF9FEFDC0107
:1013A00087839087A187B2870895DB018F939F93EE
:1013B0000E94220ABF91AF91A29F800D911DA39F11
:1013C000900DB29F900D1124089597FB072E16F4EF
:1013D000009407D077FD09D00E942D0A07FC05D0A4
:1013E0003EF4909581959F4F0895709561957F4F3C
:1013F0000895A1E21A2EAA1BBB1BFD010DC0AA1F56
:10140000BB1FEE1FFF1FA217B307E407F50720F06D
:10141000A21BB30BE40BF50B661F771F881F991FE8
:101420001A9469F760957095809590959B01AC0131
:10143000BD01CF0108950E94470AB7FF0895821B9E
:10144000930B08950E94470AA59F900DB49F900D9D
:10145000A49F800D911D11240895AA1BBB1B51E16F
:1014600007C0AA1FBB1FA617B70710F0A61BB70B14
:10147000881F991F5A95A9F780959095BC01CD01B9
:101480000895EE0FFF1F0590F491E02D0994A29F9F
:10149000B001B39FC001A39F700D811D1124911D48
:1014A000B29F700D811D1124911D08950E94CA0ADA
:1014B00088F09F5798F0B92F9927B751B0F0E1F015
:1014C000660F771F881F991F1AF0BA95C9F714C0C5
:1014D000B13091F00E94E40AB1E008950C94E40A5E
:1014E000672F782F8827B85F39F0B93FCCF38695FE
:1014F00077956795B395D9F73EF49095809570955B
:1015000061957F4F8F4F9F4F0895E89409C097FBD7
:101510003EF490958095709561957F4F8F4F9F4FCA
:101520009923A9F0F92F96E9BB279395F69587950E
:1015300077956795B795F111F8CFFAF4BB0F11F4D1
:1015400060FF1BC06F5F7F4F8F4F9F4F16C0882378
:1015500011F096E911C0772321F09EE8872F762FAE
:1015600005C0662371F096E8862F70E060E02AF0EF
:101570009A95660F771F881FDAF7880F96958795DB
:1015800097F9089557FD9058440F551F59F05F3F44
:1015900071F04795880F97FB991F61F09F3F79F095
:1015A00087950895121613061406551FF2CF469517
:1015B000F1DF08C0161617061806991FF1CF869599
:1015C0007105610508940895E894BB27662777277D
:1015D000CB0197F9089581E090E0F8940C94F00A1B
:0415E000F894FFCFAD
:1015E40000000000DD06DD06DD069C05D606DA06F1
:1015F400000000005905150513059C05D606800258
:02160400C00222
:00000001FF
