:100000000C9462000C948A000C948A000C948A0070
:100010000C948A000C948A000C948A000C948A0038
:100020000C948A000C948A000C948A000C948A0028
:100030000C948A000C948A000C948A000C948A0018
:100040000C94D6060C948A000C948A000C948A00B6
:100050000C948A000C948A000C948A000C948A00F8
:100060000C948A000C948A00000000080002010031
:100070000003040700000000000000000000000072
:10008000240027002A000000000023002600290089
:1000900000000000250028002B00040404040404D0
:1000A0000404020202020202030303030303010227
:1000B00004081020408001020408102001020408F6
:1000C0001020750A11241FBECFEFD8E0DEBFCDBFD0
:1000D00011E0A0E0B1E0EAEDF8E102C005900D9278
:1000E000A632B107D9F724E0A6E2B1E001C01D9223
:1000F000A938B207E1F710E0C2E6D0E004C02197CA
:10010000FE010E94CB0BC136D107C9F70E94200720
:100110000C946B0C0C94000020E0DC0160FF03C029
:1001200001C02D932D936250E0F77040D0F70895F1
:10013000DC0117962C91179730E0F901E255FF4F3B
:10014000E4911696EC93169726563F4FF901849149
:10015000E82FF0E0EE0FFF1FE057FF4F85919491DD
:1001600013969C938E931297F9012491E22FF0E05D
:10017000EE0FFF1FEA57FF4F8591949115969C93C0
:100180008E9314970895CF93DF9390E0FC01E2558E
:10019000FF4F249186569F4FFC0184918823C1F024
:1001A00090E0880F991FFC01E458FF4FC591D4914E
:1001B000FC01E057FF4FA591B4919FB7F8943881A7
:1001C000822F809583238883EC91E22BEC939FBF51
:1001D000DF91CF91089590E0FC01E859FF4F249101
:1001E000FC01E255FF4F3491FC01E656FF4FE491CC
:1001F000EE23C1F1222339F02330E9F090F42130CD
:1002000001F1223011F1F0E0EE0FFF1FEA57FF4F2E
:10021000A591B491EC91E32381E090E029F580E091
:1002200008952730A9F02830C9F0243061F7809173
:1002300080008F7D03C0809180008F778093800045
:10024000E2CF84B58F7784BDDECF84B58F7DFBCFC1
:100250008091B0008F778093B000D5CF8091B000AF
:100260008F7DF9CF80E090E008953FB7F8948091BA
:100270006C0490916D04A0916E04B0916F0426B54A
:10028000A89B05C02F3F19F00196A11DB11D3FBFCE
:10029000BA2FA92F982F8827BC01CD01620F711D9D
:1002A000811D911D42E0660F771F881F991F4A9597
:1002B000D1F708952FB7F89460916804709169049C
:1002C00080916A0490916B042FBF08954F925F92C2
:1002D0006F927F929F92AF92BF92CF92DF92EF92F6
:1002E000FF920F931F93CF93DF9300D01F92CDB750
:1002F000DEB7D82E8091790490917A04A0917B0486
:10030000B0917C04892B8A2B8B2BD9F00E9435016C
:10031000009185041091860420918704309188040F
:10032000601B710B820B930B0091790410917A047E
:1003300020917B0430917C0460177107820793073A
:10034000C8F20E94350160938504709386048093FF
:10035000870490938804E0918104F091820430979F
:1003600059F040917D0450917E0460917F0470911A
:1003700080048D2D0995D82EE0908304F09084049C
:100380004D2C512C712C612CE114F10409F459C04D
:10039000D7011C96CC901C9780917704909178049B
:1003A0008436910510F41C961C92D701ED91FC91B6
:1003B000A280B38019821A821B82DD2079F1F701B5
:1003C000369610E000E02191222319F192809920C5
:1003D00001F130E050E040E02F5F3F4F4F4F5F4F63
:1003E000C301B2010E948C0B9B01AC01892D90E0EE
:1003F000B0E0A0E0BC01CD016F5F7F4F8F4F9F4FFA
:100400000E948C0BA1E0B0E0AC0FBD1FA00FB11F8C
:100410008C930F5F1F4F03301105A9F609811A81D4
:100420002B81F7014585568562817381C701F501EE
:100430000995D7011C96CC921C971496ED90FC90D0
:10044000A3CF80917404909175048C010F5F1F4FAE
:1004500010937504009374044997B4F10E945A01F3
:10046000C0907004D0907104E0907204F090730416
:100470009B01AC012C193D094E095F0921F421E0D3
:1004800030E040E050E088EE93E0089FB001099F23
:10049000700D189F700D1124072E000C880B990BFE
:1004A0000E945B0B309378042093770410927504BC
:1004B000109274040E945A01609370047093710446
:1004C00080937204909373040F900F900F90DF91BC
:1004D000CF911F910F91FF90EF90DF90CF90BF9041
:1004E000AF909F907F906F905F904F90089580E9BC
:1004F00091E008950F931F93CF93DF9320912701ED
:100500002F5F322F37703093270120FF2BC020E858
:1005100031FD2064347009F02062205FFC01EC01A1
:10052000239600E011E06485662329F070E0C8019D
:100530000E949C0B6F5F6187322F369F030E30E065
:10054000311D1124311110C01682662311F0615043
:1005500061873196EC17FD0731F7DF91CF911F913D
:100560000F91089520E0D4CF31503683EECF4F92D3
:100570005F926F927F928F92AF92BF92CF92DF92F3
:10058000EF920F931F93CF93DF933C01EB010E94F7
:100590003501F30127853089621B730B6A307105C1
:1005A000B0F3F894E881F98175B1746065B16B7F3F
:1005B00065B9CA848F812C2D281B822F2F83BF847D
:1005C0004A805B801D850C85DE841F5F0F5FD3949E
:1005D0009E813885A984EB844181D20120E0C32F1C
:1005E000522F322F3181442788943111380F08F46B
:1005F0003FEF8195889410FD430F4795889411FD36
:10060000430F4795889412FD430F4795889413FD37
:10061000430F4795889414FD430F4795889415FD23
:10062000430F4795889416FD430F4795889417FD0F
:10063000430F47958894232F1111242F8C0D422F9F
:10064000002C75B900C047FF65B930812227889416
:1006500000C000C0002C65B93111390F00C0002C5A
:1006600075B900C046FF65B908F43FEF91958894CD
:1006700000C000C0002C65B900FD230F00C0002C95
:1006800075B900C045FF65B92795889401FD230F12
:1006900000C000C0002C65B92795889400C0002CCC
:1006A00075B900C044FF65B902FD230F27958894F2
:1006B00000C000C0002C65B903FD230F00C0002C52
:1006C00075B900C043FF65B92795889404FD230FD1
:1006D00000C000C0002C65B92795889400C0002C8C
:1006E00075B900C042FF65B905FD230F27958894B1
:1006F00000C000C0002C65B906FD230F00C0002C0F
:1007000075B900C041FF65B92795889407FD230F8F
:1007100000C000C0002C65B92795889400C0002C4B
:1007200075B900C040FF65B9432F0111422F9A0DE2
:1007300000C000C0002C65B900C000C0002C75B915
:1007400000C047FF65B932812227889400C000C0ED
:10075000002C65B931113C0F00C0002C75B900C0E8
:1007600046FF65B908F43FEFEB0DF11D00C000C076
:10077000002C65B9D0FC230F00C0002C75B900C057
:1007800045FF65B927958894D1FC230F00C000C0B0
:10079000002C65B92795889400C0002C75B900C05D
:1007A00044FF65B9D2FC230F2795889400C000C090
:1007B000002C65B9D3FC230F00C0002C75B900C014
:1007C00043FF65B927958894D4FC230F00C000C06F
:1007D000002C65B92795889400C0002C75B900C01D
:1007E00042FF65B9D5FC230F2795889400C000C04F
:1007F000002C65B9D6FC230F00C0002C75B900C0D1
:1008000041FF65B927958894D7FC230F00C000C02D
:10081000002C65B92795889400C0002C75B900C0DC
:1008200040FF65B9432FD110422FC19500C000C0D1
:10083000002C65B9CE0D00C000C075B900C047FFDF
:1008400065B931812227889400C000C0002C65B9A9
:100850003111380F00C0002C75B900C046FF65B9D2
:1008600008F43FEF8195889400C000C0002C65B962
:1008700010FD230F00C0002C75B900C045FF65B9FD
:100880002795889411FD230F00C000C0002C65B986
:100890002795889400C0002C75B900C044FF65B945
:1008A00012FD230F2795889400C000C0002C65B965
:1008B00013FD230F00C0002C75B900C043FF65B9BC
:1008C0002795889414FD230F00C000C0002C65B943
:1008D0002795889400C0002C75B900C042FF65B907
:1008E00015FD230F2795889400C000C0002C65B922
:1008F00016FD230F00C0002C75B900C041FF65B97B
:100900002795889417FD230F00C000C0002C65B9FF
:100910002795889400C0002C75B900C040FF65B9C8
:10092000432F1111422F8C0D00C000C0002C65B95F
:10093000119709F086CE20EE31E0D2010E94B00B73
:10094000DC01CB01F4E0B695A79597958795FA95CC
:10095000D1F730E020E0B901EAE94E9E040C611DB8
:100960005E9E600D711D1124650D711D860F971F10
:10097000A11DB11D893E43E09407A105B10508F40E
:1009800034C0885E9340A109B10942E0B695A795AD
:10099000979587954A95D1F747E0849F080E211DCA
:1009A000949F200D311D1124290F311D60912601C6
:1009B00070E0860F971F820F931F4091680450913B
:1009C000690460916A0470916B04292F3327420FE8
:1009D000531F611D711D4093680450936904609317
:1009E0006A0470936B048093260178940E94350109
:1009F000F301708B6787DF91CF911F910F91EF907B
:100A0000DF90CF90BF90AF908F907F906F905F906E
:100A10004F900895229A0895EF92FF920F931F939B
:100A2000CF93DF93CDB7DEB762970FB6F894DEBFF2
:100A30000FBECDBF7C01DC011C968C917A8369834B
:100A40005C834B835E834D830D871E872F878130A8
:100A500001F5CE0101960E947A0283E0888B1A8A02
:100A6000198AD701ED91FC910484F585E02DBE0132
:100A70006F5F7F4FC701099562960FB6F894DEBF8E
:100A80000FBECDBFDF91CF911F910F91FF90EF90DF
:100A900008951C861B861A86198618861F82DDCF4C
:100AA000EF92FF920F931F93CF93DF93CDB7DEB7F3
:100AB00062970FB6F894DEBF0FBECDBF7C01DC019C
:100AC0001C968C917A8369835C834B835E834D8310
:100AD0000D871E872F878130F9F4CE0101960E9481
:100AE0007A02188A1A8A198AD701ED91FC91048436
:100AF000F585E02DBE016F5F7F4FC70109956296B6
:100B00000FB6F894DEBF0FBECDBFDF91CF911F911E
:100B10000F91FF90EF9008951C861B861A86198608
:100B200018861F82DECF0F931F93CF93DF9300D0E1
:100B30001F92CDB7DEB7AB0119821A821B82DC018E
:100B4000ED91FC910190F081E02D00E010E020E0BB
:100B5000BE016F5F7F4F09950F900F900F90DF914F
:100B6000CF911F910F910895CF92DF92EF9230E0D5
:100B700020E0409155045091560424173507ACF4F9
:100B8000A901440F551F420F531FE0915304F091E8
:100B90005404E40FF51FDC01CD90DD90EC90C08291
:100BA000D182E2822F5F3F4FE4CFEF90DF90CF9072
:100BB00008952F923F924F925F926F927F928F9201
:100BC0009F92AF92BF92CF92DF92EF92FF920F93DC
:100BD0001F93CF93DF93CDB7DEB729970FB6F89465
:100BE000DEBF0FBECDBF898749835A836B837C8369
:100BF0000091830410918404BDE78B2E912CA12CCD
:100C0000B12C0115110509F46BC0D801ED91FC91CF
:100C10000084F185E02DC80109951C01D8011296C8
:100C2000ED91FC91C12CD12C7601412C512C32013B
:100C300020E030E0A901009791F06081260F311D7E
:100C4000411D511D6181460E511C611C711C628148
:100C5000C60ED11CE11CF11C01973396ECCFA0E528
:100C6000B0E00E94480B6D837E838F839887A7E353
:100C7000B0E0A30192010E94480B2B013C01ABE4C0
:100C8000B0E0A70196010E94480B2D813E814F8163
:100C90005885C32ED42EE52EFF2445E0429D9001B9
:100CA000439D300D1124C20ED31EE11CF11C8C0C8F
:100CB0009D1CAE1CBF1C452C562C672C7724840C25
:100CC000951CA61CB71C472F582F692F7727840E19
:100CD000951EA61EB71ED80114960D911C9191CF9A
:100CE000B985CB2ED12CF12CE12CA7019601C501A1
:100CF000B4010E948C0B872E982EA92EBB2429812B
:100D00003A814B815C8182169306A406B50668F091
:100D1000A701960169817A818B819C810E948C0B4D
:100D2000A50194010E945B0B2987898529960FB63E
:100D3000F894DEBF0FBECDBFDF91CF911F910F9111
:100D4000FF90EF90DF90CF90BF90AF909F908F90EB
:100D50007F906F905F904F903F902F900895FC018F
:100D6000A281B3819C9186812681982381E0921390
:100D700080E00895FC0186810280F381E02D90815E
:100D80008095892380830895FC0196810280F381F8
:100D9000E02D8081892B80830895FC0185859685CF
:100DA000089590E080E008950E94660C1F920F92D3
:100DB0000FB60F9211242F933F938F939F93AF936E
:100DC000BF938091680490916904A0916A04B091E6
:100DD0006B043091670423E0230F2D3758F50196FB
:100DE000A11DB11D2093670480936804909369044A
:100DF000A0936A04B0936B0480916C0490916D048D
:100E0000A0916E04B0916F040196A11DB11D809355
:100E10006C0490936D04A0936E04B0936F04BF9123
:100E2000AF919F918F913F912F910F900FBE0F9097
:100E30001F90189526E8230F0296A11DB11DD2CF51
:100E4000CF93DF9300D01F92CDB7DEB7789484B5EF
:100E5000826084BD84B5816084BD85B5826085BDB6
:100E600085B5816085BD80916E00816080936E0044
:100E70001092810080918100826080938100809136
:100E800081008160809381008091800081608093E7
:100E900080008091B10084608093B1008091B000A7
:100EA00081608093B00080917A00846080937A00A2
:100EB00080917A00826080937A0080917A008160CC
:100EC00080937A0080917A00806880937A001092F3
:100ED000C10085E00E94C30084E00E94C30083E05B
:100EE0000E94C30082E00E94C30086E694E09093D3
:100EF000600480935F0485E694E0909352048093AD
:100F0000510484E694E09093500480934F0483E668
:100F100094E090934E0480934D0483E491E0909389
:100F200054048093530482E091E09093560480939C
:100F3000550481E090E090936204809361040E94E4
:100F40005A016093490470934A0480934B04909330
:100F50004C0480913B01811145C010922D011092EB
:100F60002C018FEF80933001809331018093320107
:100F700080933301809334018093350181E0809325
:100F80003601109238011092370110922F01109201
:100F90002E018091830490918404892B31F48AE29C
:100FA00091E09093840480938304E0912801F09170
:100FB0002901309721F08AE291E0958384838AE2C7
:100FC00091E0909329018093280110923A011092A8
:100FD000390188E191E090932B0180932A0181E00F
:100FE00080933B01229A83E491E090932D018093BA
:100FF0002C0182E091E09093380180933701809139
:10100000790490917A04A0917B04B0917C04843C93
:1010100029E09207A105B10520F484EC99E0A0E055
:10102000B0E08093790490937A04A0937B04B0930A
:101030007C0489ED95E0909382048093810484EC94
:1010400099E0A0E0B0E080937D0490937E04A093AB
:101050007F04B093800400918304109184040115EF
:10106000110591F0F80182819381009749F025855F
:101070003685B901660F771F620F731F0E948C00BF
:10108000F80104811581EBCF809176040E946601FE
:1010900085E00E94EB0021E0892B09F020E02093FD
:1010A000660484E00E94EB0021E0892B09F020E037
:1010B0002093650483E00E94EB0021E0892B09F076
:1010C00020E02093640482E00E94EB0021E0892B61
:1010D00009F020E020936304809161049091620400
:1010E000009771F0019709F431C1809176040E9454
:1010F000660180E090E0892B59F20E940000C8CF81
:10110000E0915F04F09160048081882349F08FEFC3
:1011100089838A838B83CE0101960E94B405E5CF33
:10112000E0915104F09152048081882329F01982C2
:101130008FEF8A831B82EFCFE0914F04F091500430
:101140008081882319F08FEF8983F3CFE0914D04DC
:10115000F0914E0480818111F5C010E000E0809193
:10116000550490915604081719070CF0BECF0E9441
:101170005A01C0904904D0904A04E0904B04F0908A
:101180004C046C197D098E099F0922E330E040E090
:1011900050E00E945B0BF22EF00E1801220C331C63
:1011A000200E311E8091530490915404280E391E54
:1011B0002F2D30E0F6E0FF9EB00111246E3F42E09B
:1011C00074070CF44BC06C3F83E078070CF457C0F5
:1011D0006C3FE4E07E070CF056C06C5F7340072E56
:1011E000000C880B990B0E94020C4B015C016BEA0E
:1011F0006F0D262F30E046E0649FB00111246E3F52
:1012000082E078070CF446C06C3FE3E07E070CF404
:1012100052C06C3FE4E07E070CF051C06C5F73403D
:10122000072E000C880B990B0E94020C2B013C012D
:1012300065E56F0D462F50E026E0629FB001112456
:101240006E3F82E078070CF441C06C3FE3E07E071C
:101250000CF052C0C12CD12C76015CC04AEF420385
:10126000B001439F700D112462308EEF78073CF07F
:101270006230FFEF7F073CF462507E4FB0CF812C8D
:10128000912C5401B4CF812C912C6FE7A62E63E4EE
:10129000B62EADCF4AEF4203B001439F700D11242B
:1012A00062308EEF78073CF06230FFEF7F073CF44E
:1012B00062507E4FB5CF412C512C3201B9CF412C19
:1012C000512C5FE7652E53E4752EB2CF2AEF24032D
:1012D000B001259F700D112462304EEF74070CF49D
:1012E000B9CF6230EFEF7E0754F1C12CD12C4FE71C
:1012F000E42E43E4F42E0EC06C3F84E07807ACF794
:101300006C5F7340072E000C880B990B0E94020C37
:101310006B017C01C501B4010E94D10BF101608316
:10132000C301B2010E94D10BF1016183C701B60173
:101330000E94D10BF10162830F5F1F4F10CF6250EB
:101340007E4FE0CF8FEF89831A82F4CEE0915F0465
:10135000F09160048081882399F180915E0481116D
:101360002FC080915D0481112BC00E945A0170939F
:101370005C0460935B048091590490915A049093AB
:10138000580480935704C0905504D09056040D2CF7
:10139000000CEE08FF0860E070E0CB011C141D0497
:1013A0001E041F0434F40E94D10AA70196010E9472
:1013B000290B70935A0460935904F1E0F0935D0493
:1013C000E0915F04F0916004808180935E048091DD
:1013D0005D04882309F450C0A0905904B0905A04C9
:1013E000E0905704F090580401E010E0EA14FB0488
:1013F00014F00FEF1FEF0E945A01C0905504D090D7
:10140000560440905B0450905C04052C000C660868
:1014100077089B01AC012419350946095709D80101
:101420000E94530B9B01AC01D6010E94530B28EE86
:1014300033E040E050E00E94290B8701020F131FA8
:1014400017FD39C00C151D051CF08601015011094E
:10145000C8018E199F0997FF03C091958195910945
:10146000AE18BF08B7FE03C0B194A194B1088A15A5
:101470009B0524F110925D0480915D04811135CEAD
:1014800019821A821B82CE0101960E94B4058091B6
:10149000590490915A04FC01EE0FFF1F8E0F9F1FFD
:1014A000E0915304F0915404E80FF91F8FEF80830B
:1014B000818382831ACE10E000E0CACF19821A829B
:1014C0001B82CE0101960E94B405F801EE0FFF1FAA
:1014D0000E0F1F1FE0915304F0915404E00FF11F11
:1014E0008FEF808311821282C7CFE6E7F4E08FEF9F
:1014F000808312821182148613868FEF9FEFDC01A6
:1015000087839087A187B28708958F929F92AF9229
:10151000BF92CF92DF92EF92FF92CF93DF93EC01D5
:10152000688179818A819B816115710581059105A9
:1015300021F464E279ED8BE597E02DE133EF41E0B2
:1015400050E00E94290B49015A019B01AC01A7EA16
:10155000B1E40E94480B6B017C01ACEEB4EFA50135
:1015600094010E94560BC60ED71EE81EF91EF7FE08
:1015700006C081E0C81AD108E10880E8F80AC882EC
:10158000D982EA82FB82C701B6019F77DF91CF91B2
:10159000FF90EF90DF90CF90BF90AF909F908F9093
:1015A00008958F929F92AF92BF92CF92DF92EF9267
:1015B000FF92609100017091010180910201909170
:1015C0000301611571058105910521F464E279ED4E
:1015D0008BE597E02DE133EF41E050E00E94290BCD
:1015E00049015A019B01AC01A7EAB1E40E94480BF2
:1015F0006B017C01ACEEB4EFA50194010E94560B87
:10160000C60ED71EE81EF91EF7FE06C081E0C81AF6
:10161000D108E10880E8F80AC0920001D0920101E7
:10162000E0920201F0920301C701B6019F77FF909B
:10163000EF90DF90CF90BF90AF909F908F900895E4
:101640006093000170930101809302019093030164
:101650000895052E97FB1EF400940E94400B57FD41
:1016600007D00E945B0B07FC03D04EF40C94400B98
:1016700050954095309521953F4F4F4F5F4F0895BE
:1016800090958095709561957F4F8F4F9F4F0895EE
:101690000E947D0BA59F900DB49F900DA49F800D7F
:1016A000911D11240895B7FF0C94480B0E94480B1C
:1016B000821B930B0895A1E21A2EAA1BBB1BFD01EE
:1016C0000DC0AA1FBB1FEE1FFF1FA217B307E40721
:1016D000F50720F0A21BB30BE40BF50B661F771F79
:1016E000881F991F1A9469F7609570958095909559
:1016F0009B01AC01BD01CF010895A29FB001B39F32
:10170000C001A39F700D811D1124911DB29F700D0A
:10171000811D1124911D0895DB018F939F930E94D9
:10172000480BBF91AF91A29F800D911DA39F900D7B
:10173000B29F900D1124089597FB072E16F4009484
:1017400007D077FD09D00E94B70B07FC05D03EF407
:10175000909581959F4F0895709561957F4F08955D
:101760000E947D0BB7FF0895821B930B0895AA1B5F
:10177000BB1B51E107C0AA1FBB1FA617B70710F07C
:10178000A61BB70B881F991F5A95A9F780959095AE
:10179000BC01CD010895EE0FFF1F0590F491E02DDF
:1017A00009940E94450C88F09F5798F0B92F99270B
:1017B000B751B0F0E1F0660F771F881F991F1AF03C
:1017C000BA95C9F714C0B13091F00E945F0CB1E036
:1017D00008950C945F0C672F782F8827B85F39F035
:1017E000B93FCCF3869577956795B395D9F73EF4D5
:1017F00090958095709561957F4F8F4F9F4F08957D
:10180000E89409C097FB3EF490958095709561959A
:101810007F4F8F4F9F4F9923A9F0F92F96E9BB2750
:101820009395F695879577956795B795F111F8CFCC
:10183000FAF4BB0F11F460FF1BC06F5F7F4F8F4F37
:101840009F4F16C0882311F096E911C0772321F02D
:101850009EE8872F762F05C0662371F096E8862FC5
:1018600070E060E02AF09A95660F771F881FDAF71C
:10187000880F9695879597F9089557FD9058440FCE
:10188000551F59F05F3F71F04795880F97FB991FDF
:1018900061F09F3F79F0879508951216130614069C
:1018A000551FF2CF4695F1DF08C016161706180629
:1018B000991FF1CF86957105610508940895E89404
:1018C000BB2766277727CB0197F9089581E090E041
:0A18D000F8940C946B0CF894FFCF11
:1018DA000100000000000000D406D406D4069305D7
:1018EA00CD06D1060000000050050C050A05930537
:0618FA00CD067702B702E3
:00000001FF
