:100000000C9462000C948A000C948A000C948A0070
:100010000C948A000C948A000C948A000C948A0038
:100020000C948A000C948A000C948A000C948A0028
:100030000C948A000C948A000C948A000C948A0018
:100040000C94E8060C948A000C948A000C948A00A4
:100050000C948A000C948A000C948A000C948A00F8
:100060000C948A000C948A00000000080002010031
:100070000003040700000000000000000000000072
:10008000240027002A000000000023002600290089
:1000900000000000250028002B00040404040404D0
:1000A0000404020202020202030303030303010227
:1000B00004081020408001020408102001020408F6
:1000C0001020020B11241FBECFEFD8E0DEBFCDBF42
:1000D00011E0A0E0B1E0E6E3FBE102C005900D9283
:1000E000A632B107D9F724E0A6E2B1E001C01D9223
:1000F000A938B207E1F710E0C2E6D0E004C02197CA
:10010000FE010E94580CC136D107C9F70E94320780
:100110000C94990D0C94000020E0DC0160FF03C0FA
:1001200001C02D932D936250E0F77040D0F70895F1
:10013000DC0117962C91179730E0F901E255FF4F3B
:10014000E4911696EC93169726563F4FF901849149
:10015000E82FF0E0EE0FFF1FE057FF4F85919491DD
:1001600013969C938E931297F9012491E22FF0E05D
:10017000EE0FFF1FEA57FF4F8591949115969C93C0
:100180008E9314970895CF93DF9390E0FC01E2558E
:10019000FF4F249186569F4FFC0184918823C1F024
:1001A00090E0880F991FFC01E458FF4FC591D4914E
:1001B000FC01E057FF4FA591B4919FB7F8943881A7
:1001C000822F809583238883EC91E22BEC939FBF51
:1001D000DF91CF91089590E0FC01E859FF4F249101
:1001E000FC01E255FF4F3491FC01E656FF4FE491CC
:1001F000EE23C1F1222339F02330E9F090F42130CD
:1002000001F1223011F1F0E0EE0FFF1FEA57FF4F2E
:10021000A591B491EC91E32381E090E029F580E091
:1002200008952730A9F02830C9F0243061F7809173
:1002300080008F7D03C0809180008F778093800045
:10024000E2CF84B58F7784BDDECF84B58F7DFBCFC1
:100250008091B0008F778093B000D5CF8091B000AF
:100260008F7DF9CF80E090E008953FB7F8948091BA
:100270006C0490916D04A0916E04B0916F0426B54A
:10028000A89B05C02F3F19F00196A11DB11D3FBFCE
:10029000BA2FA92F982F8827BC01CD01620F711D9D
:1002A000811D911D42E0660F771F881F991F4A9597
:1002B000D1F708952FB7F89460916804709169049C
:1002C00080916A0490916B042FBF08954F925F92C2
:1002D0006F927F929F92AF92BF92CF92DF92EF92F6
:1002E000FF920F931F93CF93DF9300D01F92CDB750
:1002F000DEB7D82E8091790490917A04A0917B0486
:10030000B0917C04892B8A2B8B2BD9F00E9435016C
:10031000009185041091860420918704309188040F
:10032000601B710B820B930B0091790410917A047E
:1003300020917B0430917C0460177107820793073A
:10034000C8F20E94350160938504709386048093FF
:10035000870490938804E0918104F091820430979F
:1003600059F040917D0450917E0460917F0470911A
:1003700080048D2D0995D82EE0908304F09084049C
:100380004D2C512C712C612CE114F10409F459C04D
:10039000D7011C96CC901C9780917704909178049B
:1003A0008436910510F41C961C92D701ED91FC91B6
:1003B000A280B38019821A821B82DD2079F1F701B5
:1003C000369610E000E02191222319F192809920C5
:1003D00001F130E050E040E02F5F3F4F4F4F5F4F63
:1003E000C301B2010E94190C9B01AC01892D90E060
:1003F000B0E0A0E0BC01CD016F5F7F4F8F4F9F4FFA
:100400000E94190CA1E0B0E0AC0FBD1FA00FB11FFE
:100410008C930F5F1F4F03301105A9F609811A81D4
:100420002B81F7014585568562817381C701F501EE
:100430000995D7011C96CC921C971496ED90FC90D0
:10044000A3CF80917404909175048C010F5F1F4FAE
:1004500010937504009374044997B4F10E945A01F3
:10046000C0907004D0907104E0907204F090730416
:100470009B01AC012C193D094E095F0921F421E0D3
:1004800030E040E050E088EE93E0089FB001099F23
:10049000700D189F700D1124072E000C880B990BFE
:1004A0000E94E80B3093780420937704109275042F
:1004B000109274040E945A01609370047093710446
:1004C00080937204909373040F900F900F90DF91BC
:1004D000CF911F910F91FF90EF90DF90CF90BF9041
:1004E000AF909F907F906F905F904F90089580E9BC
:1004F00091E008950F931F93CF93DF9320912701ED
:100500002F5F322F37703093270120FF2BC020E858
:1005100031FD2064347009F02062205FFC01EC01A1
:10052000239600E011E06485662329F070E0C8019D
:100530000E94290C6F5F6187322F369F030E30E0D7
:10054000311D1124311110C01682662311F0615043
:1005500061873196EC17FD0731F7DF91CF911F913D
:100560000F91089520E0D4CF31503683EECF4F92D3
:100570005F926F927F928F92AF92BF92CF92DF92F3
:10058000EF920F931F93CF93DF933C01EB010E94F7
:100590003501F30127853089621B730B6A307105C1
:1005A000B0F3F894E881F98175B1746065B16B7F3F
:1005B00065B9CA848F812C2D281B822F2F83BF847D
:1005C0004A805B801D850C85DE841F5F0F5FD3949E
:1005D0009E813885A984EB844181D20120E0C32F1C
:1005E000522F322F3181442788943111380F08F46B
:1005F0003FEF8195889410FD430F4795889411FD36
:10060000430F4795889412FD430F4795889413FD37
:10061000430F4795889414FD430F4795889415FD23
:10062000430F4795889416FD430F4795889417FD0F
:10063000430F47958894232F1111242F8C0D422F9F
:10064000002C75B900C047FF65B930812227889416
:1006500000C000C0002C65B93111390F00C0002C5A
:1006600075B900C046FF65B908F43FEF91958894CD
:1006700000C000C0002C65B900FD230F00C0002C95
:1006800075B900C045FF65B92795889401FD230F12
:1006900000C000C0002C65B92795889400C0002CCC
:1006A00075B900C044FF65B902FD230F27958894F2
:1006B00000C000C0002C65B903FD230F00C0002C52
:1006C00075B900C043FF65B92795889404FD230FD1
:1006D00000C000C0002C65B92795889400C0002C8C
:1006E00075B900C042FF65B905FD230F27958894B1
:1006F00000C000C0002C65B906FD230F00C0002C0F
:1007000075B900C041FF65B92795889407FD230F8F
:1007100000C000C0002C65B92795889400C0002C4B
:1007200075B900C040FF65B9432F0111422F9A0DE2
:1007300000C000C0002C65B900C000C0002C75B915
:1007400000C047FF65B932812227889400C000C0ED
:10075000002C65B931113C0F00C0002C75B900C0E8
:1007600046FF65B908F43FEFEB0DF11D00C000C076
:10077000002C65B9D0FC230F00C0002C75B900C057
:1007800045FF65B927958894D1FC230F00C000C0B0
:10079000002C65B92795889400C0002C75B900C05D
:1007A00044FF65B9D2FC230F2795889400C000C090
:1007B000002C65B9D3FC230F00C0002C75B900C014
:1007C00043FF65B927958894D4FC230F00C000C06F
:1007D000002C65B92795889400C0002C75B900C01D
:1007E00042FF65B9D5FC230F2795889400C000C04F
:1007F000002C65B9D6FC230F00C0002C75B900C0D1
:1008000041FF65B927958894D7FC230F00C000C02D
:10081000002C65B92795889400C0002C75B900C0DC
:1008200040FF65B9432FD110422FC19500C000C0D1
:10083000002C65B9CE0D00C000C075B900C047FFDF
:1008400065B931812227889400C000C0002C65B9A9
:100850003111380F00C0002C75B900C046FF65B9D2
:1008600008F43FEF8195889400C000C0002C65B962
:1008700010FD230F00C0002C75B900C045FF65B9FD
:100880002795889411FD230F00C000C0002C65B986
:100890002795889400C0002C75B900C044FF65B945
:1008A00012FD230F2795889400C000C0002C65B965
:1008B00013FD230F00C0002C75B900C043FF65B9BC
:1008C0002795889414FD230F00C000C0002C65B943
:1008D0002795889400C0002C75B900C042FF65B907
:1008E00015FD230F2795889400C000C0002C65B922
:1008F00016FD230F00C0002C75B900C041FF65B97B
:100900002795889417FD230F00C000C0002C65B9FF
:100910002795889400C0002C75B900C040FF65B9C8
:10092000432F1111422F8C0D00C000C0002C65B95F
:10093000119709F086CE20EE31E0D2010E943D0CE5
:10094000DC01CB01F4E0B695A79597958795FA95CC
:10095000D1F730E020E0B901EAE94E9E040C611DB8
:100960005E9E600D711D1124650D711D860F971F10
:10097000A11DB11D893E43E09407A105B10508F40E
:1009800034C0885E9340A109B10942E0B695A795AD
:10099000979587954A95D1F747E0849F080E211DCA
:1009A000949F200D311D1124290F311D60912601C6
:1009B00070E0860F971F820F931F4091680450913B
:1009C000690460916A0470916B04292F3327420FE8
:1009D000531F611D711D4093680450936904609317
:1009E0006A0470936B048093260178940E94350109
:1009F000F301708B6787DF91CF911F910F91EF907B
:100A0000DF90CF90BF90AF908F907F906F905F906E
:100A10004F900895229A0895EF92FF920F931F939B
:100A2000CF93DF93CDB7DEB762970FB6F894DEBFF2
:100A30000FBECDBF7C01DC011C968C917A8369834B
:100A40005C834B835E834D830D871E872F878130A8
:100A500001F5CE0101960E947A0283E0888B1A8A02
:100A6000198AD701ED91FC910484F585E02DBE0132
:100A70006F5F7F4FC701099562960FB6F894DEBF8E
:100A80000FBECDBFDF91CF911F910F91FF90EF90DF
:100A900008951C861B861A86198618861F82DDCF4C
:100AA000EF92FF920F931F93CF93DF93CDB7DEB7F3
:100AB00062970FB6F894DEBF0FBECDBF7C01DC019C
:100AC0001C968C917A8369835C834B835E834D8310
:100AD0000D871E872F878130F9F4CE0101960E9481
:100AE0007A02188A1A8A198AD701ED91FC91048436
:100AF000F585E02DBE016F5F7F4FC70109956296B6
:100B00000FB6F894DEBF0FBECDBFDF91CF911F911E
:100B10000F91FF90EF9008951C861B861A86198608
:100B200018861F82DECF0F931F93CF93DF9300D0E1
:100B30001F92CDB7DEB7AB0119821A821B82DC018E
:100B4000ED91FC910190F081E02D00E010E020E0BB
:100B5000BE016F5F7F4F09950F900F900F90DF914F
:100B6000CF911F910F910895FC0180819181909305
:100B70006204809361040E945A0160934D04709353
:100B80004E0480934F04909350040895CF92DF92C7
:100B9000EF9230E020E04091530450915404241728
:100BA0003507ACF4A901440F551F420F531FE091C4
:100BB0005104F0915204E40FF51FDC01CD90DD905B
:100BC000EC90C082D182E2822F5F3F4FE4CFEF9062
:100BD000DF90CF9008952F923F924F925F926F9245
:100BE0007F928F929F92AF92BF92CF92DF92EF92BD
:100BF000FF920F931F93CF93DF93CDB7DEB7299763
:100C00000FB6F894DEBF0FBECDBF898749835A83E4
:100C10006B837C830091830410918404BDE78B2E49
:100C2000912CA12CB12C0115110509F46BC0D80130
:100C3000ED91FC910084F185E02DC80109951C011E
:100C4000D8011296ED91FC91C12CD12C7601412C4A
:100C5000512C320120E030E0A901009791F0608131
:100C6000260F311D411D511D6181460E511C611C15
:100C7000711C6281C60ED11CE11CF11C01973396D8
:100C8000ECCFA0E5B0E00E94D50B6D837E838F830F
:100C90009887A7E3B0E0A30192010E94D50B2B0136
:100CA0003C01ABE4B0E0A70196010E94D50B2D8179
:100CB0003E814F815885C32ED42EE52EFF2445E07A
:100CC000429D9001439D300D1124C20ED31EE11CA4
:100CD000F11C8C0C9D1CAE1CBF1C452C562C672C8B
:100CE0007724840C951CA61CB71C472F582F692FFE
:100CF0007727840E951EA61EB71ED80114960D9157
:100D00001C9191CFB985CB2ED12CF12CE12CA701D0
:100D10009601C501B4010E94190C872E982EA92EA8
:100D2000BB2429813A814B815C8182169306A406FB
:100D3000B50668F0A701960169817A818B819C8153
:100D40000E94190CA50194010E94E80B298789854E
:100D500029960FB6F894DEBF0FBECDBFDF91CF91BD
:100D60001F910F91FF90EF90DF90CF90BF90AF90C9
:100D70009F908F907F906F905F904F903F902F90BB
:100D80000895FC01A281B3819C91868126819823DC
:100D900081E0921380E00895FC0186810280F38156
:100DA000E02D90818095892380830895FC019681B0
:100DB0000280F381E02D8081892B80830895FC01DE
:100DC00085859685089590E080E008950E94940DB1
:100DD0001F920F920FB60F9211242F933F938F9370
:100DE0009F93AF93BF938091680490916904A09101
:100DF0006A04B0916B043091670423E0230F2D3710
:100E000058F50196A11DB11D2093670480936804D5
:100E100090936904A0936A04B0936B0480916C046E
:100E200090916D04A0916E04B0916F040196A11D84
:100E3000B11D80936C0490936D04A0936E04B093E5
:100E40006F04BF91AF919F918F913F912F910F9020
:100E50000FBE0F901F90189526E8230F0296A11D34
:100E6000B11DD2CFCF93DF9300D000D01F92CDB76A
:100E7000DEB7789484B5826084BD84B5816084BD1A
:100E800085B5826085BD85B5816085BD80916E0028
:100E9000816080936E001092810080918100826059
:100EA0008093810080918100816080938100809196
:100EB00080008160809380008091B1008460809385
:100EC000B1008091B00081608093B00080917A0081
:100ED000846080937A0080917A00826080937A00A7
:100EE00080917A00816080937A0080917A00806896
:100EF00080937A001092C10085E00E94C30084E0D4
:100F00000E94C30083E00E94C30082E00E94C300ED
:100F100086E694E09093600480935F0485E694E015
:100F200090934C0480934B0484E694E090934A049D
:100F30008093490483E694E090935E0480935D047B
:100F400083E491E0909352048093510482E091E015
:100F500090935404809353041A821982CE0101960F
:100F60000E94B40580913B01811145C010922D0172
:100F700010922C018FEF8093300180933101809388
:100F8000320180933301809334018093350181E0F5
:100F900080933601109238011092370110922F0180
:100FA00010922E018091830490918404892B31F456
:100FB0008AE291E09093840480938304E091280175
:100FC000F0912901309721F08AE291E095838483A2
:100FD0008AE291E0909329018093280110923A01CE
:100FE0001092390188E191E090932B0180932A01BE
:100FF00081E080933B01229A83E491E090932D015C
:1010000080932C0182E091E0909338018093370126
:101010008091790490917A04A0917B04B0917C0432
:10102000843C29E09207A105B10520F484EC99E005
:10103000A0E0B0E08093790490937A04A0937B04BD
:10104000B0937C048BEE95E09093820480938104AE
:1010500084EC99E0A0E0B0E080937D0490937E045E
:10106000A0937F04B09380040091830410918404C2
:101070000115110591F0F80182819381009749F0E3
:1010800025853685B901660F771F620F731F0E9491
:101090008C00F80104811581EBCF809176040E94C9
:1010A00066011FEF0FEF85E00E94EB0021E0892B26
:1010B00009F020E02093660484E00E94EB0021E028
:1010C000892B09F020E02093650483E00E94EB0067
:1010D00021E0892B09F020E02093640482E00E9443
:1010E000EB0021E0892B09F020E02093630480913C
:1010F0006504882331F01A821982CE0101960E947C
:10110000B40580916404882341F041E050E05A83A3
:101110004983CE0101960E94B4058091630488231F
:1011200041F082E090E09A838983CE0101960E948B
:10113000B40580916104909162048130910509F4B5
:1011400039C178F0029709F47FC1809176040E943A
:10115000660180E090E0892B09F4A5CF0E94000091
:10116000A0CFE0915F04F09160048081882341F07A
:1011700009830A830B83CE0101960E94C605E5CF41
:10118000E0914B04F0914C048081882321F0198276
:101190000A831B82F0CFE0914904F0914A048081D8
:1011A000882311F00983F4CFE0915D04F0915E048F
:1011B00080818111FCC0312C212C809153049091AD
:1011C0005404281639060CF0C0CF0E945A01C09072
:1011D0004D04D0904E04E0904F04F09050046C19F0
:1011E0007D098E099F0922E330E040E050E00E9433
:1011F000E80BF22EF20CC101880F991F820D931D8E
:101200002091510430915204F901E80FF91FFD8338
:10121000EC832F2D30E0F6E0FF9EB00111246E3FED
:1012200042E074070CF44BC06C3F53E075070CF4BC
:1012300057C06C3F84E078070CF056C06C5F734079
:10124000072E000C880B990B0E94080D4B015C01C6
:101250006BEA6F0D262F30E0E6E06E9FB00111249F
:101260006E3FF2E07F070CF446C06C3F23E072074C
:101270000CF452C06C3F84E078070CF051C06C5FF6
:101280007340072E000C880B990B0E94080D2B0150
:101290003C0165E56F0D462F50E0E6E06E9FB00122
:1012A00011246E3FF2E07F070CF441C06C3F23E055
:1012B00072070CF052C0C12CD12C76015CC04AEFF1
:1012C0004203B001439F700D112462305EEF750739
:1012D0003CF062309FEF79073CF462507E4FB0CF14
:1012E000812C912C5401B4CF812C912CEFE7AE2EA0
:1012F000E3E4BE2EADCF4AEF4203B001439F700D31
:10130000112462305EEF75073CF062309FEF790781
:101310003CF462507E4FB5CF412C512C3201B9CFF5
:10132000412C512C7FE7672E73E4772EB2CF2AEF42
:101330002403B001259F700D112462304EEF740715
:101340000CF4B9CF62308FEF780774F1C12CD12C37
:101350006FE7E62E63E4F62E0EC06C3F54E075078F
:10136000ACF76C5F7340072E000C880B990B0E9442
:10137000080D6B017C01C501B4010E94D70CEC8102
:10138000FD816083C301B2010E94D70CEC81FD8115
:101390006183C701B6010E94D70CEC81FD81628395
:1013A000FFEF2F1A3F0A09CF62507E4FDCCF09832F
:1013B0001A82EFCEE0915F04F09160042081222335
:1013C00031F09A838983CE0101960E94B405E090A2
:1013D0005304F09054040E945A0120914D0430911E
:1013E0004E046B01C21AD30AB7010F2C000C880BF4
:1013F000990B0E94080D9B01AC0160E070E48CE940
:1014000095E40E945E0C0E94D00CAB01C601BA01AB
:101410000E94290C9701261B370BE0915104F09193
:10142000520490E080E08E159F050CF08ECE82175E
:10143000930734F010831183128301963396F3CF10
:10144000108211821282F9CFE0915F04F091600462
:101450008081811107C0E0915D04F0915E0480817C
:10146000882399F180915C0481112FC080915B04E5
:1014700081112BC00E945A0170935A046093590441
:10148000809157049091580490935604809355048A
:10149000C0905304D09054040D2C000CEE08FF08AB
:1014A00060E070E0CB011C141D041E041F0434F422
:1014B0000E945E0BA70196010E94B60B7093580420
:1014C0006093570421E020935B04E0915F04F09166
:1014D00060048081811105C0E0915D04F0915E049B
:1014E000808180935C0480915B04882309F453C05D
:1014F000C0905704D0905804A0905504B090560462
:10150000EE24E394F12CAC14BD041CF0EE24EA9418
:10151000FE2C0E945A0180905304909054044090F5
:10152000590450905A04052C000C660877089B015A
:10153000AC012419350946095709D7010E94E00B6F
:101540009B01AC01D4010E94E00B28EE33E040E0A7
:1015500050E00E94B60B7501E20EF31EF7FC39C095
:10156000E814F90424F0740141E0E41AF108C70119
:101570008A199B0997FF03C0919581959109CA1813
:10158000DB08D7FE03C0D194C194D1088C159D050A
:101590001CF110925B0480915B048111D6CD1982FD
:1015A0001A821B82CE0101960E94C60580915704C3
:1015B00090915804FC01EE0FFF1F8E0F9F1FE091CA
:1015C0005104F0915204E80FF91F10831183128324
:1015D000BCCDF12CE12CCBCF19821A821B82CE011B
:1015E00001960E94C605F701EE0FFF1FEE0EFF1ECB
:1015F000E0915104F0915204EE0DFF1D1083118211
:101600001282C9CFE6E7F4E08FEF80831282118265
:10161000148613868FEF9FEFDC0187839087A18765
:10162000B28708958F929F92AF92BF92CF92DF922E
:10163000EF92FF92CF93DF93EC01688179818A81E9
:101640009B81611571058105910521F464E279EDB5
:101650008BE597E02DE133EF41E050E00E94B60BBF
:1016600049015A019B01AC01A7EAB1E40E94D50BE4
:101670006B017C01ACEEB4EFA50194010E94E30B79
:10168000C60ED71EE81EF91EF7FE06C081E0C81A76
:10169000D108E10880E8F80AC882D982EA82FB8290
:1016A000C701B6019F77DF91CF91FF90EF90DF9058
:1016B000CF90BF90AF909F908F9008958F929F9200
:1016C000AF92BF92CF92DF92EF92FF9260910001B2
:1016D00070910101809102019091030161157105E2
:1016E0008105910521F464E279ED8BE597E02DE128
:1016F00033EF41E050E00E94B60B49015A019B01D3
:10170000AC01A7EAB1E40E94D50B6B017C01ACEE01
:10171000B4EFA50194010E94E30BC60ED71EE81E8C
:10172000F91EF7FE06C081E0C81AD108E10880E87A
:10173000F80AC0920001D0920101E0920201F092F9
:101740000301C701B6019F77FF90EF90DF90CF9024
:10175000BF90AF909F908F90089560930001709319
:10176000010180930201909303010895052E97FBD8
:101770001EF400940E94CD0B57FD07D00E94E80B89
:1017800007FC03D04EF40C94CD0B5095409530954A
:1017900021953F4F4F4F5F4F0895909580957095DD
:1017A00061957F4F8F4F9F4F08950E940A0CA59F10
:1017B000900DB49F900DA49F800D911D112408954C
:1017C000B7FF0C94D50B0E94D50B821B930B089589
:1017D000A1E21A2EAA1BBB1BFD010DC0AA1FBB1F35
:1017E000EE1FFF1FA217B307E407F50720F0A21BA7
:1017F000B30BE40BF50B661F771F881F991F1A9414
:1018000069F760957095809590959B01AC01BD013D
:10181000CF010895A29FB001B39FC001A39F700D97
:10182000811D1124911DB29F700D811D1124911DE8
:101830000895DB018F939F930E94D50BBF91AF91C9
:10184000A29F800D911DA39F900DB29F900D11241A
:10185000089597FB072E16F4009407D077FD09D062
:101860000E94440C07FC05D03EF4909581959F4F53
:101870000895709561957F4F08950E940A0CB7FFF7
:101880000895821B930B0895AA1BBB1B51E107C04F
:10189000AA1FBB1FA617B70710F0A61BB70B881F00
:1018A000991F5A95A9F780959095BC01CD0108958F
:1018B000EE0FFF1F0590F491E02D09940E94720C29
:1018C0000C945A0D0E94530D58F00E944C0D40F09C
:1018D00029F45F3F29F00C94430D51110C948E0DA7
:1018E0000C94490D0E946B0D68F39923B1F35523B5
:1018F00091F3951B550BBB27AA2762177307840723
:1019000038F09F5F5F4F220F331F441FAA1FA9F3B8
:1019100035D00E2E3AF0E0E832D091505040E695A6
:10192000001CCAF72BD0FE2F29D0660F771F881F07
:10193000BB1F261737074807AB07B0E809F0BB0BFA
:10194000802DBF01FF2793585F4F3AF09E3F51050E
:1019500078F00C94430D0C948E0D5F3FE4F3983EA9
:10196000D4F3869577956795B795F7959F5FC9F7F7
:10197000880F911D9695879597F90895E1E0660F78
:10198000771F881FBB1F621773078407BA0720F0F1
:10199000621B730B840BBA0BEE1F88F7E09508955A
:1019A0000E94D70C6894B1110C948E0D08950E947A
:1019B000730D88F09F5798F0B92F9927B751B0F061
:1019C000E1F0660F771F881F991F1AF0BA95C9F7C3
:1019D00014C0B13091F00E948D0DB1E008950C94C7
:1019E0008D0D672F782F8827B85F39F0B93FCCF37A
:1019F000869577956795B395D9F73EF49095809540
:101A0000709561957F4F8F4F9F4F0895E89409C05F
:101A100097FB3EF490958095709561957F4F8F4F21
:101A20009F4F9923A9F0F92F96E9BB279395F69537
:101A3000879577956795B795F111F8CFFAF4BB0FB5
:101A400011F460FF1BC06F5F7F4F8F4F9F4F16C019
:101A5000882311F096E911C0772321F09EE8872FA3
:101A6000762F05C0662371F096E8862F70E060E05F
:101A70002AF09A95660F771F881FDAF7880F9695D8
:101A8000879597F9089597F99F6780E870E060E07F
:101A900008959FEF80EC089500240A941616170607
:101AA00018060906089500240A941216130614064F
:101AB00005060895092E0394000C11F4882352F0B2
:101AC000BB0F40F4BF2B11F460FF04C06F5F7F4F6A
:101AD0008F4F9F4F089557FD9058440F551F59F051
:101AE0005F3F71F04795880F97FB991F61F09F3F0B
:101AF00079F087950895121613061406551FF2CF34
:101B00004695F1DF08C0161617061806991FF1CF83
:101B100086957105610508940895E894BB276627AA
:101B20007727CB0197F9089581E090E0F8940C9421
:061B3000990DF894FFCFAF
:101B36000100000000000000E606E606E606930542
:101B4600DF06E3060000000050050C050A059305B4
:061B5600DF067702B70272
:00000001FF
