:100000000C9462000C948A000C948A000C948A0070
:100010000C948A000C948A000C948A000C948A0038
:100020000C948A000C948A000C948A000C948A0028
:100030000C948A000C948A000C948A000C948A0018
:100040000C94BD0A0C948A000C948A000C948A00CB
:100050000C948A000C948A000C948A000C948A00F8
:100060000C948A000C948A000000000024002700F1
:100070002A0000000008000201000003040700003D
:1000800000000000000000000000230026002900FE
:1000900000000000250028002B00040404040404D0
:1000A0000404020202020202030303030303010227
:1000B00004081020408001020408102001020408F6
:1000C0001020070B11241FBECFEFD8E0DEBFCDBF3D
:1000D00011E0A0E0B1E0E8E6F5E202C005900D9283
:1000E000AA35B107D9F724E0AAE5B1E001C01D9215
:1000F000AD3DB207E1F710E0C2E6D0E004C02197C1
:10010000FE010E945C10C136D107C9F70E947D0B29
:100110000C94B2120C94000020E0DC0160FF03C0DC
:1001200001C02D932D936250E0F77040D0F70895F1
:10013000DC0117962C91179730E0F901E255FF4F3B
:10014000E4911696EC93169726563F4FF901849149
:10015000E82FF0E0EE0FFF1FE057FF4F85919491DD
:1001600013969C938E931297F9012491E22FF0E05D
:10017000EE0FFF1FEA57FF4F8591949115969C93C0
:100180008E9314970895833081F028F4813099F08C
:100190008230A9F008958730A9F08830C9F0843002
:1001A000B1F4809180008F7D03C0809180008F77B3
:1001B00080938000089584B58F7784BD089584B5B9
:1001C0008F7DFBCF8091B0008F778093B000089532
:1001D0008091B0008F7DF9CFCF93DF93282F30E04F
:1001E000F901EE58FF4F8491F901E255FF4FD49188
:1001F000F901E656FF4FC491CC23A1F081110E9472
:10020000C300EC2FF0E0EE0FFF1FEA57FF4FA59160
:10021000B491EC91ED2381E090E009F480E0DF916E
:10022000CF91089580E090E0FACF1F93CF93DF93B2
:10023000282F30E0F901EE58FF4F8491F901E25583
:10024000FF4FD491F901E656FF4FC491CC23A9F09A
:10025000162F81110E94C300EC2FF0E0EE0FFF1F5C
:10026000E057FF4FA591B4918FB7F894EC9111111D
:1002700008C0D095DE23DC938FBFDF91CF911F9113
:100280000895DE2BF8CFCF93DF9390E0FC01E25589
:10029000FF4F249186569F4FFC0184918823D1F013
:1002A00090E0880F991FFC01E859FF4FA591B49188
:1002B000FC01E057FF4FC591D491623071F49FB7B4
:1002C000F8943C91822F809583238C93E8812E2B88
:1002D00028839FBFDF91CF9108958FB7F894EC9159
:1002E0002E2B2C938FBFF6CF3FB7F8948091A904A3
:1002F0009091AA04A091AB04B091AC0426B5A89B40
:1003000005C02F3F19F00196A11DB11D3FBFBA2FA7
:10031000A92F982F8827BC01CD01620F711D811D67
:10032000911D42E0660F771F881F991F4A95D1F7EC
:1003300008952FB7F8946091A5047091A604809158
:10034000A7049091A8042FBF08954F925F926F92D7
:100350007F929F92AF92BF92CF92DF92EF92FF92E5
:100360000F931F93CF93DF9300D01F92CDB7DEB7CB
:10037000D82E8091D3049091D404A091D504B0914B
:10038000D604892B8A2B8B2BD9F00E947401009103
:10039000B5041091B6042091B7043091B804601BE5
:1003A000710B820B930B0091D3041091D404209114
:1003B000D5043091D6046017710782079307C8F2FD
:1003C0000E9474016093B5047093B6048093B704DF
:1003D0009093B804E091DB04F091DC04309759F07D
:1003E0004091D7045091D8046091D9047091DA04F7
:1003F0008D2D0995D82EE090B304F090B4044D2CC7
:10040000512C712C612CE114F10409F459C0D7016D
:100410001C96CC901C978091D1049091D204843684
:10042000910510F41C961C92D701ED91FC91A280CD
:10043000B38019821A821B82DD2079F1F70136968A
:1004400010E000E02191222319F19280992001F11E
:1004500030E050E040E02F5F3F4F4F4F5F4FC30110
:10046000B2010E94F00F9B01AC01892D90E0B0E039
:10047000A0E0BC01CD016F5F7F4F8F4F9F4F0E9467
:10048000F00FA1E0B0E0AC0FBD1FA00FB11F8C9327
:100490000F5F1F4F03301105A9F609811A812B81C7
:1004A000F7014585568562817381C701F50109957C
:1004B000D7011C96CC921C971496ED90FC90A3CF7C
:1004C0008091B1049091B2048C010F5F1F4F109383
:1004D000B2040093B1044997B4F10E949901C0900D
:1004E000AD04D090AE04E090AF04F090B0049B0156
:1004F000AC012C193D094E095F0921F421E030E0DF
:1005000040E050E088EE93E0089FB001099F700D35
:10051000189F700D1124072E000C880B990B0E9458
:1005200014103093D2042093D1041092B20410928C
:10053000B1040E9499016093AD047093AE0480935E
:10054000AF049093B0040F900F900F90DF91CF9174
:100550001F910F91FF90EF90DF90CF90BF90AF90E1
:100560009F907F906F905F904F90089580E991E009
:100570000895AF92BF92CF92DF92EF92FF920F93C6
:100580001F93CF93DF936C017B018B01040F151F29
:10059000EB015E01AE18BF08C017D10759F0699191
:1005A000D601ED91FC910190F081E02DC6010995F5
:1005B000892B79F7C501DF91CF911F910F91FF90A2
:1005C000EF90DF90CF90BF90AF900895BF92CF9201
:1005D000DF92EF92FF920F931F93CF93DF938C01E3
:1005E000B42E6C018EE0C80ED11CD0E0C0E0E62E27
:1005F000F12CB7010C2E02C0759567950A94E2F7AD
:100600006170F60181916F010E9415012196CB1551
:1006100080F361E0F80185850E94150160E0F80132
:100620008585DF91CF911F910F91FF90EF90DF9023
:10063000CF90BF900C941501FC0186898F3F71F01B
:1006400021853285662329F0232B31F461E00C9457
:10065000150121303105D1F360E0F9CF0895EF9213
:10066000FF921F93CF93DF93EC01162F7A0161E085
:10067000812F0E9443011E8BFA86E986E881F98169
:100680000484F585E02D60E0CE01DF91CF911F91CC
:10069000FF90EF9009940F931F93CF93DF93EC019A
:1006A000162F042F61E0413009F060E08B850E9435
:1006B00015018C858F3F19F060E00E941501023012
:1006C00079F08C8148E084FD0CC0612F70E084E0FB
:1006D000759567958A95E1F744E0CE010E94E602A0
:1006E00044E0612FCE01DF91CF911F910F910C94C7
:1006F000E602DC01ED91FC910684F785E02D41E0F6
:10070000099581E090E00895DC01ED91FC9106846B
:10071000F785E02D40E009940F931F93CF93DF936B
:10072000CDB7DEB728970FB6F894DEBF0FBECDBFAA
:10073000009100011091010120910201309103010B
:100740000D831E832F8338870091040110910501CA
:10075000209106013091070109831A832B833C8382
:10076000FC012781621710F06FEF620F70E0FC014F
:1007700030856C0F7D1FFB01303181F4243071F422
:100780006181606828960FB6F894DEBF0FBECDBFBA
:10079000DF91CF911F910F910C9484036581F1CF6C
:1007A00061E00E9484038BE39FE10197F1F70895D4
:1007B0008F929F92AF92BF92CF92DF92EF92FF9271
:1007C0000F931F93CF93DF93EC01423018F08C818D
:1007D00088608C834F836887222329F0413019F485
:1007E0008C8184608C830E9474014B015C0184E6DF
:1007F000C82ED12CE12CF12C0E94740168197909C2
:100800008A099B09683E734081059105A8F321E0A0
:10081000C21AD108E108F10888EE880E83E0981E1C
:10082000A11CB11CC114D104E104F10429F76C81AD
:1008300064FD5FC0E881F9810684F785E02D42E020
:1008400063E0CE0109958BE496E40197F1F7E88126
:10085000F9810684F785E02D42E063E0CE01099539
:1008600003E512E0C8010197F1F7E881F9810684F8
:10087000F785E02D42E063E0CE010995C8010197BC
:10088000F1F7E881F9810684F785E02D42E062E026
:10089000CE010995C8010197F1F76C816062CE0124
:1008A0000E9484038BEE90E00197F1F784E08D8342
:1008B0006CE0CE010E948403CE010E94D00382E04E
:1008C0008E8366E0CE010E948403E881F98104846E
:1008D000F585E02D6FEFCE01DF91CF911F910F9144
:1008E000FF90EF90DF90CF90BF90AF909F908F9050
:1008F00009946062CE010E9484038BE496E4019720
:10090000F1F76C816062CE010E94840303E512E07E
:10091000C8010197F1F76C816062CE010E948403E7
:10092000B9CF08950895089590E080E008950F9359
:100930001F93CF93DF9320915D012F5F322F37708C
:1009400030935D0120FF2BC020E831FD206434701E
:1009500009F02062205FFC01EC01239600E011E029
:100960006485662329F070E0C8010E9400106F5F63
:100970006187322F369F030E30E0311D1124311173
:1009800010C01682662311F0615061873196EC1712
:10099000FD0731F7DF91CF911F910F91089520E06E
:1009A000D4CF31503683EECF4F925F926F927F92C9
:1009B0008F92AF92BF92CF92DF92EF920F931F93DD
:1009C000CF93DF933C01EB010E947401F301278573
:1009D0003089621B730B6A307105B0F3F894E881BB
:1009E000F98175B1746065B16B7F65B9CA848F8117
:1009F0002C2D281B822F2F83BF844A805B801D856E
:100A00000C85DE841F5F0F5FD3949E813885A98497
:100A1000EB844181D20120E0C32F522F322F31814C
:100A2000442788943111380F08F43FEF819588945A
:100A300010FD430F4795889411FD430F4795889407
:100A400012FD430F4795889413FD430F47958894F3
:100A500014FD430F4795889415FD430F47958894DF
:100A600016FD430F4795889417FD430F47958894CB
:100A7000232F1111242F8C0D422F002C75B900C08B
:100A800047FF65B930812227889400C000C0002C40
:100A900065B93111390F00C0002C75B900C046FF8F
:100AA00065B908F43FEF9195889400C000C0002C10
:100AB00065B900FD230F00C0002C75B900C045FFCB
:100AC00065B92795889401FD230F00C000C0002C54
:100AD00065B92795889400C0002C75B900C044FF03
:100AE00065B902FD230F2795889400C000C0002C33
:100AF00065B903FD230F00C0002C75B900C043FF8A
:100B000065B92795889404FD230F00C000C0002C10
:100B100065B92795889400C0002C75B900C042FFC4
:100B200065B905FD230F2795889400C000C0002CEF
:100B300065B906FD230F00C0002C75B900C041FF48
:100B400065B92795889407FD230F00C000C0002CCD
:100B500065B92795889400C0002C75B900C040FF86
:100B600065B9432F0111422F9A0D00C000C0002C1F
:100B700065B900C000C0002C75B900C047FF65B959
:100B800032812227889400C000C0002C65B9311141
:100B90003C0F00C0002C75B900C046FF65B908F4D1
:100BA0003FEFEB0DF11D00C000C0002C65B9D0FC7B
:100BB000230F00C0002C75B900C045FF65B927950B
:100BC0008894D1FC230F00C000C0002C65B9279584
:100BD000889400C0002C75B900C044FF65B9D2FCF0
:100BE000230F2795889400C000C0002C65B9D3FC62
:100BF000230F00C0002C75B900C043FF65B92795CD
:100C00008894D4FC230F00C000C0002C65B9279540
:100C1000889400C0002C75B900C042FF65B9D5FCAE
:100C2000230F2795889400C000C0002C65B9D6FC1E
:100C3000230F00C0002C75B900C041FF65B927958E
:100C40008894D7FC230F00C000C0002C65B92795FD
:100C5000889400C0002C75B900C040FF65B9432FCF
:100C6000D110422FC19500C000C0002C65B9CE0D37
:100C700000C000C075B900C047FF65B931812227A7
:100C8000889400C000C0002C65B93111380F00C035
:100C9000002C75B900C046FF65B908F43FEF819597
:100CA000889400C000C0002C65B910FD230F00C05F
:100CB000002C75B900C045FF65B92795889411FDD2
:100CC000230F00C000C0002C65B92795889400C090
:100CD000002C75B900C044FF65B912FD230F27959C
:100CE000889400C000C0002C65B913FD230F00C01C
:100CF000002C75B900C043FF65B92795889414FD91
:100D0000230F00C000C0002C65B92795889400C04F
:100D1000002C75B900C042FF65B915FD230F27955A
:100D2000889400C000C0002C65B916FD230F00C0D8
:100D3000002C75B900C041FF65B92795889417FD4F
:100D4000230F00C000C0002C65B92795889400C00F
:100D5000002C75B900C040FF65B9432F1111422F17
:100D60008C0D00C000C0002C65B9119709F086CE2B
:100D700020EE31E0D2010E943610DC01CB01F4E01C
:100D8000B695A79597958795FA95D1F730E020E02D
:100D9000B901EAE94E9E040C611D5E9E600D711D55
:100DA0001124650D711D860F971FA11DB11D893E70
:100DB00043E09407A105B10508F434C0885E934070
:100DC000A109B10942E0B695A795979587954A95EF
:100DD000D1F747E0849F080E211D949F200D311DFF
:100DE0001124290F311D60915C0170E0860F971F5F
:100DF000820F931F4091A5045091A6046091A7040F
:100E00007091A804292F3327420F531F611D711DB4
:100E10004093A5045093A6046093A7047093A8047C
:100E200080935C0178940E947401F301708B678752
:100E3000DF91CF911F910F91EF90DF90CF90BF90F6
:100E4000AF908F907F906F905F904F900895229A0F
:100E50000895EF92FF920F931F93CF93DF93CDB737
:100E6000DEB762970FB6F894DEBF0FBECDBF7C0130
:100E7000DC011C968C917A8369835C834B835E834F
:100E80004D830D871E872F87813001F5CE01019696
:100E90000E94970483E0888B1A8A198AD701ED9102
:100EA000FC910484F585E02DBE016F5F7F4FC70183
:100EB000099562960FB6F894DEBF0FBECDBFDF91E5
:100EC000CF911F910F91FF90EF9008951C861B8684
:100ED0001A86198618861F82DDCFEF92FF920F9334
:100EE0001F93CF93DF93CDB7DEB762970FB6F89419
:100EF000DEBF0FBECDBF7C01DC011C968C917A83D6
:100F000069835C834B835E834D830D871E872F87A8
:100F10008130F9F4CE0101960E949704188A1A8A4A
:100F2000198AD701ED91FC910484F585E02DBE016D
:100F30006F5F7F4FC701099562960FB6F894DEBFC9
:100F40000FBECDBFDF91CF911F910F91FF90EF901A
:100F500008951C861B861A86198618861F82DECF86
:100F60000F931F93CF93DF9300D01F92CDB7DEB7BF
:100F7000AB0119821A821B82DC01ED91FC91019078
:100F8000F081E02D00E010E020E0BE016F5F7F4FB8
:100F900009950F900F900F90DF91CF911F910F91B6
:100FA0000895FC018081918190939F0480939E0419
:100FB0000C9499012F923F924F925F926F927F9281
:100FC0008F929F92AF92BF92CF92DF92EF92FF9259
:100FD0000F931F93CF93DF93CDB7DEB729970FB64B
:100FE000F894DEBF0FBECDBF898749835A836B83D8
:100FF0007C830091B3041091B404BDE78B2E912C37
:10100000A12CB12C0115110509F46BC0D801ED918B
:10101000FC910084F185E02DC80109951C01D801DF
:101020001296ED91FC91C12CD12C7601412C512CC2
:10103000320120E030E0A901009791F06081260F95
:10104000311D411D511D6181460E511C611C711CD9
:101050006281C60ED11CE11CF11C01973396ECCFC6
:10106000A0E5B0E00E943D106D837E838F8398875A
:10107000A7E3B0E0A30192010E943D102B013C01C7
:10108000ABE4B0E0A70196010E943D102D813E81A6
:101090004F815885C32ED42EE52EFF2445E0429D76
:1010A0009001439D300D1124C20ED31EE11CF11C92
:1010B0008C0C9D1CAE1CBF1C452C562C672C772419
:1010C000840C951CA61CB71C472F582F692F772717
:1010D000840E951EA61EB71ED80114960D911C9164
:1010E00091CFB985CB2ED12CF12CE12CA701960103
:1010F000C501B4010E94F00F872E982EA92EBB24A3
:1011000029813A814B815C8182169306A406B5063B
:1011100068F0A701960169817A818B819C810E9488
:10112000F00FA50194010E94141029878985299642
:101130000FB6F894DEBF0FBECDBFDF91CF911F91E8
:101140000F91FF90EF90DF90CF90BF90AF909F9066
:101150008F907F906F905F904F903F902F90089569
:10116000FC01A281B3819C9186812681982381E034
:10117000921380E00895FC0186810280F381E02DC6
:1011800090818095892380830895FC019681028057
:10119000F381E02D8081892B80830895FC01858572
:1011A0009685089590E080E00895EF92FF920F9366
:1011B0001F93CF93DF937C018C01D0E0C0E0CE0180
:1011C0000E94DA0FF80181938F012196C430D10576
:1011D000B1F7C701DF91CF911F910F91FF90EF9071
:1011E00008950E94AD12FB0101900020E9F73197AC
:1011F000AF01461B570BDC01ED91FC910280F3819E
:10120000E02D09948F929F92AF92BF92EF92FF923E
:101210000F931F93CF93DF93CDB7DEB7A1970FB690
:10122000F894DEBF0FBECDBF7C01FA01CB0119A23D
:10123000223008F42AE08E010F5D1F4F822E912C80
:10124000B12CA12CBF01A50194010E941410F90139
:10125000CA016A300CF5605DD8016E938D01232BB5
:10126000242B252B79F790E080E0109721F0BD0129
:10127000C7010E94F308A1960FB6F894DEBF0FBE17
:10128000CDBFDF91CF911F910F91FF90EF90BF9055
:10129000AF909F908F900895695CDECF8F929F9260
:1012A000AF92BF92CF92DF92EF92FF920F931F9374
:1012B000CF93DF9300D000D0CDB7DEB78C01DC0137
:1012C0008D919C9190935B0180935A018091910440
:1012D000909192040E94D003F8018081918100973F
:1012E000A1F0019709F464C00F900F900F900F9038
:1012F000DF91CF911F910F91FF90EF90DF90CF90F2
:10130000BF90AF909F908F90089560E0809191047E
:10131000909192040E948C036EE371E0809191049D
:10132000909192040E94F308CE0101960E94D50884
:1013300061E080919104909192040E948C036981F4
:101340007A818B819C8128EEC22E23E0D22EE12C63
:10135000F12CA70196010E941410BA01A9012AE0FC
:1013600080919104909192040E94020964E471E0DA
:1013700080919104909192040E94F30869817A818E
:101380008B819C81A70196010E941410AB01BC01C6
:101390002AE080919104909192040E94020966E4EF
:1013A00071E080919104909192040E94F3089CCF87
:1013B00060E080919104909192040E948C036EE30E
:1013C00071E080919104909192040E94F308CE0103
:1013D00001960E94D50869817A818B819C810E9447
:1013E000841120E030E04AE754E40E94E3109B01BE
:1013F000AC0160E070E080E191E40E94E3106B01D9
:101400007C0161E080919104909192040E948C0390
:101410000091910410919204A7019601C701B601B1
:101420000E94A81269E471E0811116C02FEF3FEF0E
:101430004FE75FE7C701B6010E94A812811112C0F1
:101440002FEF3FEF4FE75FE7C701B6010E94DE10C5
:10145000181644F46DE471E0C8010E94F30865E5D4
:1014600071E09FCF2FEF3FEF4FE75FE4C701B60179
:101470000E94361218161CF461E571E0EDCF2FEFD3
:101480003FEF4FE75FECC701B6010E94DE1087FD1A
:10149000F3CF2AE037ED43EA5BE3C701B6010E94D0
:1014A00072104B015C010E9455116B017C010E947E
:1014B00084119B01AC01C501B4010E9471104B0164
:1014C0005C012AE0B701A601C8010E940209D80107
:1014D000ED91FC910190F081E02D6EE2C80109953B
:1014E00020E030E040E251E4C501B4010E943B122B
:1014F0004B015C010E9455116B01F12CE12C2AE09B
:10150000B701A601C8010E940209C701B6010E94E5
:1015100084119B01AC01C501B4010E94711020E04F
:1015200030E040E251E40E943B120E945511AB01B1
:1015300070E060E02AE0C8010E94020990CFCF93DA
:10154000DF9300D0CDB7DEB780915A0190915B0157
:10155000009739F0019771F00F900F90DF91CF91C4
:10156000089581E090E09A838983CE0101960E94DC
:101570004E09F2CF1A821982F8CF1F920F920FB63E
:101580000F9211242F933F938F939F93AF93BF9309
:101590008091A5049091A604A091A704B091A804FD
:1015A0003091A40423E0230F2D3758F50196A11D97
:1015B000B11D2093A4048093A5049093A604A09346
:1015C000A704B093A8048091A9049091AA04A091C3
:1015D000AB04B091AC040196A11DB11D8093A90488
:1015E0009093AA04A093AB04B093AC04BF91AF91C5
:1015F0009F918F913F912F910F900FBE0F901F9051
:10160000189526E8230F0296A11DB11DD2CFCF93C6
:10161000DF931092BC041092BB048EE291E0909391
:10162000BA048093B9048CE08093C4048FEF809354
:10163000C5048BE08093C60485E08093C70484E0F2
:101640008093C80483E08093C90482E08093CA0435
:101650001092CB041092CC041092CD041092CE04C0
:10166000C7ECD4E061E089910E94430184E0CB3C67
:10167000D807C1F761E08091C4040E9443018091C2
:10168000C5048F3F19F061E00E94430161E0809141
:10169000C6040E9443011092BD0460E08091C4041E
:1016A0000E94150160E08091C6040E94150180919E
:1016B000C5048F3F19F060E00E9415018FEF809301
:1016C000CF041092C3041092C2048093D0041092ED
:1016D000D2041092D1041092DC041092DB048FEF3C
:1016E0009FEFDC018093D7049093D804A093D90492
:1016F000B093DA04DF91CF910895CF93DF9300D0B8
:1017000000D000D0CDB7DEB7789484B5826084BDB8
:1017100084B5816084BD85B5826085BD85B58160F5
:1017200085BD80916E00816080936E001092810073
:10173000809181008260809381008091810081602E
:1017400080938100809180008160809380008091EF
:10175000B10084608093B1008091B000816080937B
:10176000B00080917A00846080937A0080917A0042
:10177000826080937A0080917A00816080937A0001
:1017800080917A00806880937A001092C10062E0B4
:1017900089E00E94430162E088E00E94430183EAFD
:1017A00094E090939D0480939C0482EA94E090934B
:1017B0008F0480938E0480EA94E090938D0480934C
:1017C0008C0489E791E09093800480937F0482E009
:1017D00091E0909386048093850489EB94E0909344
:1017E0009204809391041A821982CE0101960E947C
:1017F000D10780917101811145C01092630110924F
:1018000062018FEF80936601809367018093680186
:101810008093690180936A0180936B0181E08093DA
:101820006C0110926E0110926D0110926501109280
:1018300064018091B3049091B404892B31F480E663
:1018400091E09093B4048093B304E0915E01F09131
:101850005F01309721F080E691E09583848380E6F4
:1018600091E090935F0180935E011092700110925D
:101870006F018CE191E0909361018093600181E0C0
:1018800080937101229A89E791E09093630180939C
:10189000620182E091E090936E0180936D018091EE
:1018A000D3049091D404A091D504B091D604843C83
:1018B00029E09207A105B10520F484EC99E0A0E0AD
:1018C000B0E08093D3049093D404A093D504B09354
:1018D000D6048AED97E09093DC048093DB0482EEDB
:1018E00094E0A0E0B0E08093D7049093D804A09354
:1018F000D904B093DA040091B3041091B404011533
:10190000110591F0F80182819381009749F02585B6
:101910003685B901660F771F620F731F0E948C0016
:10192000F80104811581EBCF8091D0040E94A501BC
:1019300020E042E060E189EB94E00E94D8031A8243
:101940001982CE0101960E944E092224239446E07A
:10195000342E89E00E94EC0021E0892B09F020E080
:101960002093A30488E00E94EC0021E0892B09F079
:1019700020E02093A20480919E0490919F04009700
:10198000B1F0019709F41DC18091D0040E94A50116
:101990008091A3048093A1048091A2048093A00469
:1019A00080E090E0892BA9F20E940000CECFE09168
:1019B0008E04F0918F048081882349F0E0918C049B
:1019C000F0918D048081811102C00E949F0AE091F4
:1019D0009C04F0919D048081882341F041E050E017
:1019E0005A834983CE0101960E94D10710E000E09E
:1019F0008091850490918604081719072CF60E949F
:101A0000990124E130E040E050E00E941410F22EF1
:101A1000F00EC801880F991F800F911F20917F043D
:101A200030918004F901E80FF91FFE83ED832F2D1B
:101A300030E0F39CB00111246E3FF2E07F070CF41C
:101A400049C06C3F23E072070CF455C06C3F84E042
:101A500078070CF054C06C5F7340072E000C880BA5
:101A6000990B0E9486114B015C016BEA6F0D262FCA
:101A700030E0639DB00111246E3FE2E07E070CF47C
:101A800045C06C3FF3E07F070CF451C06C3F84E02D
:101A900078070CF050C06C5F7340072E000C880B69
:101AA000990B0E9486112B013C0165E56F0D462FB5
:101AB00050E0639DB00111246E3FE2E07E070CF41C
:101AC00041C06C3FF3E07F070CF052C0C12CD12C19
:101AD00076015CC04AEF4203B001439F700D1124B0
:101AE00062305EEF75073CF062309FEF79073CF49F
:101AF00062507E4FB2CF812C912C5401B6CF812CF5
:101B0000912C2FE7A22E23E4B22EAFCF4AEF42034F
:101B1000B001439F700D112462305EEF75073CF0F9
:101B200062309FEF79073CF462507E4FB6CF412C74
:101B3000512C3201BACF412C512C9FE7692E93E4EE
:101B4000792EB3CF2AEF2403B001259F700D112405
:101B500062304EEF74070CF4B9CF62308FEF780724
:101B60006CF1C12CD12C8FE7E82E83E4F82E0EC047
:101B70006C3F54E07507ACF76C5F7340072E000CA8
:101B8000880B990B0E9486116B017C01C501B40181
:101B90000E945511ED81FE816083C301B2010E9454
:101BA0005511ED81FE816183C701B6010E94551177
:101BB000ED81FE8162830F5F1F4F1ACF62507E4F0F
:101BC000DDCFE0919C04F0919D048081811120C0C3
:101BD00080919B0481111CC020929B040E9499015A
:101BE00060939704709398048093990490939A0457
:101BF00083E994E00E94D5081A821982CE010196E9
:101C00000E944E0980919104909192040E94D00309
:101C100080919B04811115C04091850450918604E8
:101C2000E0917F04F091800490E080E02FEF841732
:101C300095070CF0A9CE108221831282019633966B
:101C4000F6CF809190048823D1F0E0918E04F0913A
:101C50008F048081882399F0E0918C04F0918D04A9
:101C6000808181110CC00E949F0A0E94990160939B
:101C700088047093890480938A0490938B04E09184
:101C80008E04F0918F048081882359F18091900413
:101C9000811186C1209290040E949901609388046A
:101CA0007093890480938A0490938B040E94990115
:101CB000C0909704D0909804E0909904F0909A0412
:101CC0006C197D098E099F0961327E448105910559
:101CD00008F491C01A821982CE0101960E944E0921
:101CE00013C00E94990100919704109198042091CB
:101CF000990430919A04601B710B820B930B613233
:101D00007E448105910510F60091850410918604AA
:101D10006801012E000CEE08FF08809190048823D2
:101D200009F499C00E9499018090880490908904D8
:101D3000A0908A04B0908B04681979098A099B09DC
:101D4000613D77408105910560F010929B041092EF
:101D50009004109287041A821982CE0101960E9483
:101D6000D1076091930470919404809195049091AF
:101D70009604A70196010E941410032E000C440B38
:101D8000550B60918104709182048091830490913D
:101D900084040E941410490180918704EE24EA947F
:101DA000F12C811103C0E12CFF24FA940E949901C7
:101DB0002AEF30E040E050E00E9414106E377105C9
:101DC0008105910510F4E12CF12C980128193909AD
:101DD000E0917F04F091800490E080E0801791070B
:101DE0000CF0D2CD821793079CF1F082E18212822F
:101DF00001963396F3CF0E9499016C197D098E09E3
:101E00009F09683E73408105910508F463CF0E94E5
:101E100099016C197D098E099F0969837A838B83E7
:101E20009C83CE0101967C0110E000E0F701D19087
:101E30007F01C8010E94DA0FD81621F06D2DC8016C
:101E40000E94E20F0F5F1F4F0430110579F75CCF3E
:101E500010821182CCCF6091930470919404809190
:101E6000950490919604A70196010E9414106901AF
:101E70000E9499018090970490909804A0909904F2
:101E8000B0909A04681979098A099B0960938104C2
:101E90007093820480938304909384049601DD0CF4
:101EA000440B550B0E941410C90161E02017310743
:101EB0000CF060E060938704B0E0AFEF801791070B
:101EC00014F4BFEFA0E0B801621B730BE0917F0434
:101ED000F091800490E080E08017910764F4861709
:101EE000970734F0A083B183128201963396F4CF22
:101EF00010821182F9CF60E0809191049091920458
:101F00000E948C036EE371E08091910490919204A1
:101F10000E94F30861E080919104909192040E94E4
:101F20008C0360918104709182048091830490916C
:101F3000840428EE33E040E050E00E941410BA011F
:101F4000A9012AE080919104909192040E940209D3
:101F500064E471E080919104909192040E94F308EE
:101F60006091810470918204809183049091840433
:101F700028EE33E040E050E00E941410AB01BC01B9
:101F80002AE080919104909192040E94020966E4F3
:101F900071E080919104909192040E94F308F4CC36
:101FA00000918504109186046801012E000CEE0852
:101FB000FF08B8CEF999FECF92BD81BDF89A992756
:101FC00080B50895262FF999FECF1FBA92BD81BD25
:101FD00020BD0FB6F894FA9AF99A0FBE01960895AB
:101FE000DB018F939F930E943D10BF91AF91A29F01
:101FF000800D911DA39F900DB29F900D1124089507
:1020000097FB072E16F4009407D077FD09D00E94A5
:10201000481007FC05D03EF4909581959F4F089598
:10202000709561957F4F0895A1E21A2EAA1BBB1BE4
:10203000FD010DC0AA1FBB1FEE1FFF1FA217B30794
:10204000E407F50720F0A21BB30BE40BF50B661FAA
:10205000771F881F991F1A9469F76095709580956E
:1020600090959B01AC01BD01CF0108950E946210C3
:10207000B7FF0895821B930B08950E946210A59FDD
:10208000900DB49F900DA49F800D911D1124089573
:10209000AA1BBB1B51E107C0AA1FBB1FA617B7078E
:1020A00010F0A61BB70B881F991F5A95A9F78095AA
:1020B0009095BC01CD010895EE0FFF1F0590F4919E
:1020C000E02D0994A29FB001B39FC001A39F700DA2
:1020D000811D1124911DB29F700D811D1124911D30
:1020E00008955058BB27AA270E9489100C94FC1110
:1020F0000E94EE1138F00E94F51120F039F49F3F54
:1021000019F426F40C94EB110EF4E095E7FB0C9413
:10211000E511E92F0E940D1258F3BA1762077307F1
:102120008407950720F079F4A6F50C942F120EF48D
:10213000E0950B2EBA2FA02D0B01B90190010C01D7
:10214000CA01A0011124FF27591B99F0593F50F4EF
:10215000503E68F11A16F040A22F232F342F442747
:10216000585FF3CF469537952795A795F04053953F
:10217000C9F77EF41F16BA0B620B730B840BBAF00F
:102180009150A1F0FF0FBB1F661F771F881FC2F77A
:102190000EC0BA0F621F731F841F48F4879577958E
:1021A0006795B795F7959E3F08F0B0CF9395880F48
:1021B00008F09927EE0F9795879508950E94C11111
:1021C00008F481E008950E94F7100C94FC110E941D
:1021D000F51158F00E94EE1140F029F45F3F29F00C
:1021E0000C94E51151110C9430120C94EB110E94D7
:1021F0000D1268F39923B1F3552391F3951B550BF9
:10220000BB27AA2762177307840738F09F5F5F4FC9
:10221000220F331F441FAA1FA9F335D00E2E3AF008
:10222000E0E832D091505040E695001CCAF72BD020
:10223000FE2F29D0660F771F881FBB1F2617370771
:102240004807AB07B0E809F0BB0B802DBF01FF27A3
:1022500093585F4F3AF09E3F510578F00C94E5118A
:102260000C9430125F3FE4F3983ED4F38695779553
:102270006795B795F7959F5FC9F7880F911D96955C
:10228000879597F90895E1E0660F771F881FBB1FB8
:10229000621773078407BA0720F0621B730B840B65
:1022A000BA0BEE1F88F7E09508950E94151288F08A
:1022B0009F5798F0B92F9927B751B0F0E1F0660F0A
:1022C000771F881F991F1AF0BA95C9F714C0B1304B
:1022D00091F00E942F12B1E008950C942F12672FF5
:1022E000782F8827B85F39F0B93FCCF3869577957A
:1022F0006795B395D9F73EF4909580957095619563
:102300007F4F8F4F9F4F0895E89409C097FB3EF48D
:1023100090958095709561957F4F8F4F9F4F992332
:10232000A9F0F92F96E9BB279395F69587957795B0
:102330006795B795F111F8CFFAF4BB0F11F460FF70
:102340001BC06F5F7F4F8F4F9F4F16C0882311F0C8
:1023500096E911C0772321F09EE8872F762F05C0DC
:10236000662371F096E8862F70E060E02AF09A9577
:10237000660F771F881FDAF7880F9695879597F96C
:102380000895990F0008550FAA0BE0E8FEEF161606
:102390001706E807F907C0F012161306E407F50759
:1023A00098F0621B730B840B950B39F40A2661F0CD
:1023B000232B242B252B21F408950A2609F4A14070
:1023C000A6958FEF811D811D089597F99F6780E87D
:1023D00070E060E008959FEF80EC089500240A9477
:1023E0001616170618060906089500240A941216F0
:1023F0001306140605060895092E0394000C11F423
:10240000882352F0BB0F40F4BF2B11F460FF04C0CF
:102410006F5F7F4F8F4F9F4F089557FD9058440F28
:10242000551F59F05F3F71F04795880F97FB991F33
:1024300061F09F3F79F087950895121613061406F0
:10244000551FF2CF4695F1DF08C01616170618067D
:10245000991FF1CF86957105610508940895E89458
:10246000BB2766277727CB0197F908950E94C111F2
:1024700008F48FEF08950E944E120C94FC110E94F4
:10248000EE1138F00E94F51120F0952311F00C9414
:10249000E5110C94EB1111240C9430120E940D12D2
:1024A00070F3959FC1F3950F50E0551F629FF001A7
:1024B000729FBB27F00DB11D639FAA27F00DB11DC0
:1024C000AA1F649F6627B00DA11D661F829F222749
:1024D000B00DA11D621F739FB00DA11D621F839FD0
:1024E000A00D611D221F749F3327A00D611D231FA6
:1024F000849F600D211D822F762F6A2F11249F57F4
:1025000050409AF0F1F088234AF0EE0FFF1FBB1FF6
:10251000661F771F881F91505040A9F79E3F5105B5
:1025200080F00C94E5110C9430125F3FE4F3983E78
:10253000D4F3869577956795B795F795E7959F5F5F
:10254000C1F7FE2B880F911D9695879597F90895F1
:102550000E94C111880B990B089581E090E0F894D6
:082560000C94B212F894FFCFB5
:10256800004014540040105000000000F108F10829
:10257800F108B007CE08D208000000006D0729074F
:102588002707B007CE08B602D4040000000079037C
:10259800B90294049304D8032F031C034B03546912
:1025A8006D653A002C002073006E616E00696E66DE
:0A25B800006F766600206D2F73009F
:00000001FF
